{
  "contractName": "Auction",
  "abi": [
    {
      "inputs": [
        {
          "internalType": "address",
          "name": "_owner",
          "type": "address"
        },
        {
          "internalType": "uint256",
          "name": "_startBlock",
          "type": "uint256"
        },
        {
          "internalType": "uint256",
          "name": "_endBlock",
          "type": "uint256"
        },
        {
          "internalType": "string",
          "name": "_ipfs",
          "type": "string"
        },
        {
          "internalType": "uint256",
          "name": "_initialPrice",
          "type": "uint256"
        }
      ],
      "payable": false,
      "stateMutability": "nonpayable",
      "type": "constructor"
    },
    {
      "anonymous": false,
      "inputs": [
        {
          "indexed": false,
          "internalType": "address",
          "name": "bidder",
          "type": "address"
        },
        {
          "indexed": false,
          "internalType": "uint256",
          "name": "bid",
          "type": "uint256"
        },
        {
          "indexed": false,
          "internalType": "address",
          "name": "highestBidder",
          "type": "address"
        },
        {
          "indexed": false,
          "internalType": "uint256",
          "name": "highestBid",
          "type": "uint256"
        },
        {
          "indexed": false,
          "internalType": "uint256",
          "name": "highestBindingBid",
          "type": "uint256"
        }
      ],
      "name": "LogBid",
      "type": "event"
    },
    {
      "anonymous": false,
      "inputs": [],
      "name": "LogCanceled",
      "type": "event"
    },
    {
      "anonymous": false,
      "inputs": [
        {
          "indexed": false,
          "internalType": "address",
          "name": "withdrawer",
          "type": "address"
        },
        {
          "indexed": false,
          "internalType": "address",
          "name": "withdrawalAccount",
          "type": "address"
        },
        {
          "indexed": false,
          "internalType": "uint256",
          "name": "amount",
          "type": "uint256"
        }
      ],
      "name": "LogWithdrawal",
      "type": "event"
    },
    {
      "constant": true,
      "inputs": [],
      "name": "canceled",
      "outputs": [
        {
          "internalType": "bool",
          "name": "",
          "type": "bool"
        }
      ],
      "payable": false,
      "stateMutability": "view",
      "type": "function"
    },
    {
      "constant": true,
      "inputs": [],
      "name": "endBlock",
      "outputs": [
        {
          "internalType": "uint256",
          "name": "",
          "type": "uint256"
        }
      ],
      "payable": false,
      "stateMutability": "view",
      "type": "function"
    },
    {
      "constant": true,
      "inputs": [],
      "name": "highestBid",
      "outputs": [
        {
          "internalType": "uint256",
          "name": "",
          "type": "uint256"
        }
      ],
      "payable": false,
      "stateMutability": "view",
      "type": "function"
    },
    {
      "constant": true,
      "inputs": [],
      "name": "highestBidder",
      "outputs": [
        {
          "internalType": "address",
          "name": "",
          "type": "address"
        }
      ],
      "payable": false,
      "stateMutability": "view",
      "type": "function"
    },
    {
      "constant": true,
      "inputs": [],
      "name": "initialPrice",
      "outputs": [
        {
          "internalType": "uint256",
          "name": "",
          "type": "uint256"
        }
      ],
      "payable": false,
      "stateMutability": "view",
      "type": "function"
    },
    {
      "constant": true,
      "inputs": [],
      "name": "ipfsHash",
      "outputs": [
        {
          "internalType": "string",
          "name": "",
          "type": "string"
        }
      ],
      "payable": false,
      "stateMutability": "view",
      "type": "function"
    },
    {
      "constant": true,
      "inputs": [],
      "name": "owner",
      "outputs": [
        {
          "internalType": "address",
          "name": "",
          "type": "address"
        }
      ],
      "payable": false,
      "stateMutability": "view",
      "type": "function"
    },
    {
      "constant": true,
      "inputs": [],
      "name": "startBlock",
      "outputs": [
        {
          "internalType": "uint256",
          "name": "",
          "type": "uint256"
        }
      ],
      "payable": false,
      "stateMutability": "view",
      "type": "function"
    },
    {
      "constant": true,
      "inputs": [],
      "name": "getHighestBid",
      "outputs": [
        {
          "internalType": "uint256",
          "name": "",
          "type": "uint256"
        }
      ],
      "payable": false,
      "stateMutability": "view",
      "type": "function"
    },
    {
      "constant": true,
      "inputs": [
        {
          "internalType": "address",
          "name": "userAddress",
          "type": "address"
        }
      ],
      "name": "getFundsByBidder",
      "outputs": [
        {
          "internalType": "uint256",
          "name": "",
          "type": "uint256"
        }
      ],
      "payable": false,
      "stateMutability": "view",
      "type": "function"
    },
    {
      "constant": false,
      "inputs": [],
      "name": "placeBid",
      "outputs": [
        {
          "internalType": "bool",
          "name": "success",
          "type": "bool"
        }
      ],
      "payable": true,
      "stateMutability": "payable",
      "type": "function"
    },
    {
      "constant": false,
      "inputs": [],
      "name": "cancelAuction",
      "outputs": [
        {
          "internalType": "bool",
          "name": "success",
          "type": "bool"
        }
      ],
      "payable": false,
      "stateMutability": "nonpayable",
      "type": "function"
    },
    {
      "constant": false,
      "inputs": [],
      "name": "withdraw",
      "outputs": [
        {
          "internalType": "bool",
          "name": "success",
          "type": "bool"
        }
      ],
      "payable": false,
      "stateMutability": "nonpayable",
      "type": "function"
    }
  ],
  "bytecode": "0x60806040523480156200001157600080fd5b506040516200164e3803806200164e833981810160405260a08110156200003757600080fd5b81019080805190602001909291908051906020019092919080519060200190929190805160405193929190846401000000008211156200007657600080fd5b838201915060208201858111156200008d57600080fd5b8251866001820283011164010000000082111715620000ab57600080fd5b8083526020830192505050908051906020019080838360005b83811015620000e1578082015181840152602081019050620000c4565b50505050905090810190601f1680156200010f5780820380516001836020036101000a031916815260200191505b50604052602001805190602001909291905050508284106200017d576040517f08c379a00000000000000000000000000000000000000000000000000000000081526004018080602001828103825260338152602001806200161b6033913960400191505060405180910390fd5b43841015620001d8576040517f08c379a000000000000000000000000000000000000000000000000000000000815260040180806020018281038252603a815260200180620015b6603a913960400191505060405180910390fd5b600073ffffffffffffffffffffffffffffffffffffffff168573ffffffffffffffffffffffffffffffffffffffff16141562000260576040517f08c379a000000000000000000000000000000000000000000000000000000000815260040180806020018281038252602b815260200180620015f0602b913960400191505060405180910390fd5b846000806101000a81548173ffffffffffffffffffffffffffffffffffffffff021916908373ffffffffffffffffffffffffffffffffffffffff16021790555083600181905550826002819055508160039080519060200190620002c6929190620002d9565b5080600481905550505050505062000388565b828054600181600116156101000203166002900490600052602060002090601f016020900481019282601f106200031c57805160ff19168380011785556200034d565b828001600101855582156200034d579182015b828111156200034c5782518255916020019190600101906200032f565b5b5090506200035c919062000360565b5090565b6200038591905b808211156200038157600081600090555060010162000367565b5090565b90565b61121e80620003986000396000f3fe6080604052600436106100c25760003560e01c80634979440a1161007f57806391f901571161005957806391f90157146102bc578063c623674f14610313578063d57bde79146103a3578063ecfc7ecc146103ce576100c2565b80634979440a1461020b5780638da5cb5b146102365780638fa8b7901461028d576100c2565b806301e5d0bf146100c7578063083c63231461012c5780631d0806ae146101575780633ccfd60b146101825780633f9942ff146101b157806348cd4cb1146101e0575b600080fd5b3480156100d357600080fd5b50610116600480360360208110156100ea57600080fd5b81019080803573ffffffffffffffffffffffffffffffffffffffff1690602001909291905050506103f0565b6040518082815260200191505060405180910390f35b34801561013857600080fd5b50610141610439565b6040518082815260200191505060405180910390f35b34801561016357600080fd5b5061016c61043f565b6040518082815260200191505060405180910390f35b34801561018e57600080fd5b50610197610445565b604051808215151515815260200191505060405180910390f35b3480156101bd57600080fd5b506101c661097a565b604051808215151515815260200191505060405180910390f35b3480156101ec57600080fd5b506101f561098d565b6040518082815260200191505060405180910390f35b34801561021757600080fd5b50610220610993565b6040518082815260200191505060405180910390f35b34801561024257600080fd5b5061024b6109fc565b604051808273ffffffffffffffffffffffffffffffffffffffff1673ffffffffffffffffffffffffffffffffffffffff16815260200191505060405180910390f35b34801561029957600080fd5b506102a2610a21565b604051808215151515815260200191505060405180910390f35b3480156102c857600080fd5b506102d1610c11565b604051808273ffffffffffffffffffffffffffffffffffffffff1673ffffffffffffffffffffffffffffffffffffffff16815260200191505060405180910390f35b34801561031f57600080fd5b50610328610c37565b6040518080602001828103825283818151815260200191508051906020019080838360005b8381101561036857808201518184015260208101905061034d565b50505050905090810190601f1680156103955780820380516001836020036101000a031916815260200191505b509250505060405180910390f35b3480156103af57600080fd5b506103b8610cd5565b6040518082815260200191505060405180910390f35b6103d6610cdb565b604051808215151515815260200191505060405180910390f35b6000600860008373ffffffffffffffffffffffffffffffffffffffff1673ffffffffffffffffffffffffffffffffffffffff168152602001908152602001600020549050919050565b60025481565b60045481565b60006002544311806104635750600560009054906101000a900460ff165b6104b8576040517f08c379a00000000000000000000000000000000000000000000000000000000081526004018080602001828103825260258152602001806111556025913960400191505060405180910390fd5b600080600560009054906101000a900460ff161561051a57339150600860008373ffffffffffffffffffffffffffffffffffffffff1673ffffffffffffffffffffffffffffffffffffffff168152602001908152602001600020549050610768565b6000809054906101000a900473ffffffffffffffffffffffffffffffffffffffff1673ffffffffffffffffffffffffffffffffffffffff163373ffffffffffffffffffffffffffffffffffffffff1614156105b957600760009054906101000a900473ffffffffffffffffffffffffffffffffffffffff16915060065490506001600960006101000a81548160ff021916908315150217905550610767565b600760009054906101000a900473ffffffffffffffffffffffffffffffffffffffff1673ffffffffffffffffffffffffffffffffffffffff163373ffffffffffffffffffffffffffffffffffffffff16141561072057600760009054906101000a900473ffffffffffffffffffffffffffffffffffffffff169150600960009054906101000a900460ff16156106b25760086000600760009054906101000a900473ffffffffffffffffffffffffffffffffffffffff1673ffffffffffffffffffffffffffffffffffffffff1673ffffffffffffffffffffffffffffffffffffffff16815260200190815260200160002054905061071b565b60065460086000600760009054906101000a900473ffffffffffffffffffffffffffffffffffffffff1673ffffffffffffffffffffffffffffffffffffffff1673ffffffffffffffffffffffffffffffffffffffff168152602001908152602001600020540390505b610766565b339150600860008373ffffffffffffffffffffffffffffffffffffffff1673ffffffffffffffffffffffffffffffffffffffff1681526020019081526020016000205490505b5b5b600081146107de576040517f08c379a00000000000000000000000000000000000000000000000000000000081526004018080602001828103825260148152602001807f4e6f7468696e6720746f2077697468647261772e00000000000000000000000081525060200191505060405180910390fd5b80600860008473ffffffffffffffffffffffffffffffffffffffff1673ffffffffffffffffffffffffffffffffffffffff168152602001908152602001600020600082825403925050819055503373ffffffffffffffffffffffffffffffffffffffff166108fc829081150290604051600060405180830381858888f193505050506108d2576040517f08c379a00000000000000000000000000000000000000000000000000000000081526004018080602001828103825260208152602001807f53656e646572207769746864726177616c20616d6f756e74206661696c65642e81525060200191505060405180910390fd5b7f0ec497a8ae5b1ba29c60470ef651def995fac3deebbdcc56c47a4e5f51a4c2bd338383604051808473ffffffffffffffffffffffffffffffffffffffff1673ffffffffffffffffffffffffffffffffffffffff1681526020018373ffffffffffffffffffffffffffffffffffffffff1673ffffffffffffffffffffffffffffffffffffffff168152602001828152602001935050505060405180910390a160019250505090565b600560009054906101000a900460ff1681565b60015481565b600060086000600760009054906101000a900473ffffffffffffffffffffffffffffffffffffffff1673ffffffffffffffffffffffffffffffffffffffff1673ffffffffffffffffffffffffffffffffffffffff16815260200190815260200160002054905090565b6000809054906101000a900473ffffffffffffffffffffffffffffffffffffffff1681565b60008060009054906101000a900473ffffffffffffffffffffffffffffffffffffffff1673ffffffffffffffffffffffffffffffffffffffff163373ffffffffffffffffffffffffffffffffffffffff1614610ac8576040517f08c379a00000000000000000000000000000000000000000000000000000000081526004018080602001828103825260288152602001806111c26028913960400191505060405180910390fd5b600254431115610b40576040517f08c379a00000000000000000000000000000000000000000000000000000000081526004018080602001828103825260158152602001807f546869732061756374696f6e20697320646f6e652e000000000000000000000081525060200191505060405180910390fd5b600560009054906101000a900460ff1615610bc3576040517f08c379a00000000000000000000000000000000000000000000000000000000081526004018080602001828103825260178152602001807f546869732061756374696f6e2069732063616e63656c2e00000000000000000081525060200191505060405180910390fd5b6001600560006101000a81548160ff0219169083151502179055507f462b6ca7f632601af1295aeb320851f50e8e630a309173f23535845ea4bfb3b960405160405180910390a16001905090565b600760009054906101000a900473ffffffffffffffffffffffffffffffffffffffff1681565b60038054600181600116156101000203166002900480601f016020809104026020016040519081016040528092919081815260200182805460018160011615610100020316600290048015610ccd5780601f10610ca257610100808354040283529160200191610ccd565b820191906000526020600020905b815481529060010190602001808311610cb057829003601f168201915b505050505081565b60065481565b6000600154431015610d38576040517f08c379a00000000000000000000000000000000000000000000000000000000081526004018080602001828103825260218152602001806111346021913960400191505060405180910390fd5b600254431115610db0576040517f08c379a00000000000000000000000000000000000000000000000000000000081526004018080602001828103825260158152602001807f546869732061756374696f6e20697320646f6e652e000000000000000000000081525060200191505060405180910390fd5b600560009054906101000a900460ff1615610e33576040517f08c379a00000000000000000000000000000000000000000000000000000000081526004018080602001828103825260178152602001807f546869732061756374696f6e2069732063616e63656c2e00000000000000000081525060200191505060405180910390fd5b6000809054906101000a900473ffffffffffffffffffffffffffffffffffffffff1673ffffffffffffffffffffffffffffffffffffffff163373ffffffffffffffffffffffffffffffffffffffff161415610ed9576040517f08c379a000000000000000000000000000000000000000000000000000000000815260040180806020018281038252602281526020018061117a6022913960400191505060405180910390fd5b60003411610f32576040517f08c379a00000000000000000000000000000000000000000000000000000000081526004018080602001828103825260218152602001806111136021913960400191505060405180910390fd5b600034600860003373ffffffffffffffffffffffffffffffffffffffff1673ffffffffffffffffffffffffffffffffffffffff168152602001908152602001600020540190506006548111610fd2576040517f08c379a000000000000000000000000000000000000000000000000000000000815260040180806020018281038252602681526020018061119c6026913960400191505060405180910390fd5b600060086000600760009054906101000a900473ffffffffffffffffffffffffffffffffffffffff1673ffffffffffffffffffffffffffffffffffffffff1673ffffffffffffffffffffffffffffffffffffffff1681526020019081526020016000205490507ff152f4ff5e488c55370a2d53925a55055228ebd8ec95bd0251bbb299e48786b03383600760009054906101000a900473ffffffffffffffffffffffffffffffffffffffff168485604051808673ffffffffffffffffffffffffffffffffffffffff1673ffffffffffffffffffffffffffffffffffffffff1681526020018581526020018473ffffffffffffffffffffffffffffffffffffffff1673ffffffffffffffffffffffffffffffffffffffff1681526020018381526020018281526020019550505050505060405180910390a16001925050509056fe5061796d656e74732062757374206265206d6f7265207468616e2030204554482e546869732061756374696f6e20776173206e6f742073746172746564207965742e546869732061756374696f6e2069736e7420646f6e65206f722063616e63656c207965742e4f776e65722063616e6e6f7420706572666f726d65207468697320616374696f6e2e426964206d696e6f72207468616e20746865206869676865737420726567697374657265642e4f6e6c7920746865206f776e65722063616e20706572666f726d65207468697320616374696f6e2ea265627a7a72315820b8d803679e346ec75b8e5f64632a6a7255ab42018336895efa721e41604af14b64736f6c63430005100032456c20626c6f71756520696e696369616c206465626520736572206d61796f72206f20696775616c20616c20626c6f7175652061637475616c2e456c2070726f706965746172696f2070726f706f7263696f6e61646f206e6f2065732076c3a16c69646f2e456c20626c6f7175652066696e616c206465626520736572206d61796f722071756520656c20626c6f7175652066696e616c2e",
  "source": "pragma solidity >=0.4.21 <0.7.0;\n\ncontract Auction{\n    // Non-mutable data\n    address public owner;\n    uint    public startBlock;\n    uint    public endBlock;\n    string  public ipfsHash;\n    uint    public initialPrice;\n    // Auction state\n    bool    public canceled;\n    uint    public highestBid;\n    address public highestBidder;\n    mapping(address => uint256) fundsByBidder;\n    bool    ownerHasWithdrawn;\n\n    event LogBid(address bidder, uint bid, address highestBidder, uint highestBid, uint highestBindingBid);\n    event LogWithdrawal(address withdrawer, address withdrawalAccount, uint amount);\n    event LogCanceled();\n\n    // Constructor\n    constructor(address _owner, uint _startBlock, uint _endBlock, string memory _ipfs, uint _initialPrice) public {\n        require(_startBlock < _endBlock, \"El bloque final debe ser mayor que el bloque final.\");\n        require(_startBlock >= block.number, \"El bloque inicial debe ser mayor o igual al bloque actual.\");\n        require(_owner != address(0), \"El propietario proporcionado no es válido.\");\n\n        owner = _owner;\n        startBlock = _startBlock;\n        endBlock = _endBlock;\n        ipfsHash = _ipfs;\n        initialPrice = _initialPrice;\n    }\n\n    function getHighestBid() public view returns (uint) {\n        return fundsByBidder[highestBidder];\n    }\n\n    function getFundsByBidder(address userAddress) public view returns (uint256){\n        return fundsByBidder[userAddress];\n    }\n\n    function placeBid() public payable onlyAfterStart onlyBeforeEnd onlyNotCanceled onlyNotOwner returns (bool success) {\n        require(msg.value > 0, \"Payments bust be more than 0 ETH.\");\n\n        // calculate the user's total bid based on the current amount they've sent to the contract\n        // plus whatever has been sent with this transaction\n        uint newBid = fundsByBidder[msg.sender] + msg.value;\n        require(newBid > highestBid, \"Bid minor than the highest registered.\");\n\n        // grab the previous highest bid (before updating fundsByBidder, in case msg.sender is the\n        // highestBidder and is just increasing their maximum bid).\n        uint highestBid = fundsByBidder[highestBidder];\n        /* fundsByBidder[msg.sender] = newBid;\n\n        if (newBid <= highestBid) {\n            // if the user has overbid the highestBindingBid but not the highestBid, we simply\n            // increase the highestBindingBid and leave highestBidder alone.\n\n            // note that this case is impossible if msg.sender == highestBidder because you can never\n            // bid less ETH than you've already bid.\n\n            highestBid = min(newBid + bidIncrement, highestBid);\n        } else {\n            // if msg.sender is already the highest bidder, they must simply be wanting to raise\n            // their maximum bid, in which case we shouldn't increase the highestBindingBid.\n\n            // if the user is NOT highestBidder, and has overbid highestBid completely, we set them\n            // as the new highestBidder and recalculate highestBindingBid.\n\n            if (msg.sender != highestBidder) {\n                highestBidder = msg.sender;\n                highestBid = min(newBid, highestBid + bidIncrement);\n            }\n            highestBid = newBid;\n        } */\n\n        emit LogBid(msg.sender, newBid, highestBidder, highestBid, highestBid);\n        return true;\n    }\n\n    function min(uint a, uint b) private pure returns (uint) {\n        if (a < b){\n            return a;\n        }\n        return b;\n    }\n\n    function cancelAuction() public onlyOwner onlyBeforeEnd onlyNotCanceled returns (bool success) {\n        canceled = true;\n        emit LogCanceled();\n        return true;\n    }\n\n    function withdraw() public onlyEndedOrCanceled returns (bool success) {\n        address withdrawalAccount;\n        uint withdrawalAmount;\n\n        if (canceled) {\n            // if the auction was canceled, everyone should simply be allowed to withdraw their funds\n            withdrawalAccount = msg.sender;\n            withdrawalAmount = fundsByBidder[withdrawalAccount];\n\n        } else {\n            // the auction finished without being canceled\n\n            if (msg.sender == owner) {\n                // the auction's owner should be allowed to withdraw the highestBindingBid\n                withdrawalAccount = highestBidder;\n                withdrawalAmount = highestBid;\n                ownerHasWithdrawn = true;\n\n            } else if (msg.sender == highestBidder) {\n                // the highest bidder should only be allowed to withdraw the difference between their\n                // highest bid and the highestBindingBid\n                withdrawalAccount = highestBidder;\n                if (ownerHasWithdrawn) {\n                    withdrawalAmount = fundsByBidder[highestBidder];\n                } else {\n                    withdrawalAmount = fundsByBidder[highestBidder] - highestBid;\n                }\n\n            } else {\n                // anyone who participated but did not win the auction should be allowed to withdraw\n                // the full amount of their funds\n                withdrawalAccount = msg.sender;\n                withdrawalAmount = fundsByBidder[withdrawalAccount];\n            }\n        }\n\n        //if (withdrawalAmount == 0) throw;\n        require(withdrawalAmount == 0, \"Nothing to withdraw.\");\n\n        fundsByBidder[withdrawalAccount] -= withdrawalAmount;\n\n        // send the funds\n        //if (!msg.sender.send(withdrawalAmount)) throw;\n        require(msg.sender.send(withdrawalAmount), \"Sender withdrawal amount failed.\");\n\n        emit LogWithdrawal(msg.sender, withdrawalAccount, withdrawalAmount);\n\n        return true;\n    }\n\n    modifier onlyOwner {\n        //if (msg.sender != owner) throw;\n        require(msg.sender == owner, \"Only the owner can performe this action.\");\n        _;\n    }\n\n    modifier onlyNotOwner {\n        //if (msg.sender == owner) throw;\n        require(msg.sender != owner, \"Owner cannot performe this action.\");\n        _;\n    }\n\n    modifier onlyAfterStart {\n        //if (block.number < startBlock) throw;\n        require(block.number >= startBlock, \"This auction was not started yet.\");\n        _;\n    }\n\n    modifier onlyBeforeEnd {\n        //if (block.number > endBlock) throw;\n        require(block.number <= endBlock, \"This auction is done.\");\n        _;\n    }\n\n    modifier onlyNotCanceled {\n        //if (canceled) throw;\n        require(!canceled, \"This auction is cancel.\");\n        _;\n    }\n\n    modifier onlyEndedOrCanceled {\n        //if (block.number < endBlock && !canceled) throw;\n        require(block.number > endBlock || canceled, \"This auction isnt done or cancel yet.\");\n        _;\n    }\n}",
  "sourcePath": "/Users/jrg_sln/Documents/ganache/auction/src/contracts/Auction.sol",
  "compiler": {
    "name": "solc",
    "version": "0.5.16+commit.9c3226ce.Emscripten.clang"
  },
  "schemaVersion": "3.2.0",
  "updatedAt": "2020-06-11T00:42:12.507Z",
  "networkType": "ethereum",
  "devdoc": {
    "methods": {}
  },
  "userdoc": {
    "methods": {}
  }
}