{
  "contractName": "Auction",
  "abi": [
    {
      "inputs": [
        {
          "internalType": "address",
          "name": "_owner",
          "type": "address"
        },
        {
          "internalType": "uint256",
          "name": "_startBlock",
          "type": "uint256"
        },
        {
          "internalType": "uint256",
          "name": "_endBlock",
          "type": "uint256"
        },
        {
          "internalType": "string",
          "name": "_ipfs",
          "type": "string"
        },
        {
          "internalType": "uint256",
          "name": "_initialPrice",
          "type": "uint256"
        },
        {
          "internalType": "uint256",
          "name": "_minBidInc",
          "type": "uint256"
        }
      ],
      "payable": false,
      "stateMutability": "nonpayable",
      "type": "constructor"
    },
    {
      "constant": true,
      "inputs": [],
      "name": "canceled",
      "outputs": [
        {
          "internalType": "bool",
          "name": "",
          "type": "bool"
        }
      ],
      "payable": false,
      "stateMutability": "view",
      "type": "function"
    },
    {
      "constant": true,
      "inputs": [],
      "name": "endBlock",
      "outputs": [
        {
          "internalType": "uint256",
          "name": "",
          "type": "uint256"
        }
      ],
      "payable": false,
      "stateMutability": "view",
      "type": "function"
    },
    {
      "constant": true,
      "inputs": [],
      "name": "highestBid",
      "outputs": [
        {
          "internalType": "uint256",
          "name": "",
          "type": "uint256"
        }
      ],
      "payable": false,
      "stateMutability": "view",
      "type": "function"
    },
    {
      "constant": true,
      "inputs": [],
      "name": "highestBidder",
      "outputs": [
        {
          "internalType": "address",
          "name": "",
          "type": "address"
        }
      ],
      "payable": false,
      "stateMutability": "view",
      "type": "function"
    },
    {
      "constant": true,
      "inputs": [],
      "name": "initialPrice",
      "outputs": [
        {
          "internalType": "uint256",
          "name": "",
          "type": "uint256"
        }
      ],
      "payable": false,
      "stateMutability": "view",
      "type": "function"
    },
    {
      "constant": true,
      "inputs": [],
      "name": "ipfsHash",
      "outputs": [
        {
          "internalType": "string",
          "name": "",
          "type": "string"
        }
      ],
      "payable": false,
      "stateMutability": "view",
      "type": "function"
    },
    {
      "constant": true,
      "inputs": [],
      "name": "minimumBidIncrement",
      "outputs": [
        {
          "internalType": "uint256",
          "name": "",
          "type": "uint256"
        }
      ],
      "payable": false,
      "stateMutability": "view",
      "type": "function"
    },
    {
      "constant": true,
      "inputs": [],
      "name": "owner",
      "outputs": [
        {
          "internalType": "address",
          "name": "",
          "type": "address"
        }
      ],
      "payable": false,
      "stateMutability": "view",
      "type": "function"
    },
    {
      "constant": true,
      "inputs": [],
      "name": "startBlock",
      "outputs": [
        {
          "internalType": "uint256",
          "name": "",
          "type": "uint256"
        }
      ],
      "payable": false,
      "stateMutability": "view",
      "type": "function"
    }
  ],
  "bytecode": "0x608060405234801561001057600080fd5b506040516107da3803806107da833981810160405260c081101561003357600080fd5b810190808051906020019092919080519060200190929190805190602001909291908051604051939291908464010000000082111561007157600080fd5b8382019150602082018581111561008757600080fd5b82518660018202830111640100000000821117156100a457600080fd5b8083526020830192505050908051906020019080838360005b838110156100d85780820151818401526020810190506100bd565b50505050905090810190601f1680156101055780820380516001836020036101000a031916815260200191505b50604052602001805190602001909291908051906020019092919050505083851061017b576040517f08c379a00000000000000000000000000000000000000000000000000000000081526004018080602001828103825260338152602001806107a76033913960400191505060405180910390fd5b438510156101d4576040517f08c379a000000000000000000000000000000000000000000000000000000000815260040180806020018281038252603a815260200180610742603a913960400191505060405180910390fd5b600073ffffffffffffffffffffffffffffffffffffffff168673ffffffffffffffffffffffffffffffffffffffff16141561025a576040517f08c379a000000000000000000000000000000000000000000000000000000000815260040180806020018281038252602b81526020018061077c602b913960400191505060405180910390fd5b856000806101000a81548173ffffffffffffffffffffffffffffffffffffffff021916908373ffffffffffffffffffffffffffffffffffffffff160217905550846001819055508360028190555082600390805190602001906102be9291906102d8565b50816004819055508060058190555050505050505061037d565b828054600181600116156101000203166002900490600052602060002090601f016020900481019282601f1061031957805160ff1916838001178555610347565b82800160010185558215610347579182015b8281111561034657825182559160200191906001019061032b565b5b5090506103549190610358565b5090565b61037a91905b8082111561037657600081600090555060010161035e565b5090565b90565b6103b68061038c6000396000f3fe608060405234801561001057600080fd5b50600436106100935760003560e01c80638da5cb5b116100665780638da5cb5b1461011457806391f901571461015e578063c623674f146101a8578063d57bde791461022b578063ec89b5e01461024957610093565b8063083c6323146100985780631d0806ae146100b65780633f9942ff146100d457806348cd4cb1146100f6575b600080fd5b6100a0610267565b6040518082815260200191505060405180910390f35b6100be61026d565b6040518082815260200191505060405180910390f35b6100dc610273565b604051808215151515815260200191505060405180910390f35b6100fe610286565b6040518082815260200191505060405180910390f35b61011c61028c565b604051808273ffffffffffffffffffffffffffffffffffffffff1673ffffffffffffffffffffffffffffffffffffffff16815260200191505060405180910390f35b6101666102b1565b604051808273ffffffffffffffffffffffffffffffffffffffff1673ffffffffffffffffffffffffffffffffffffffff16815260200191505060405180910390f35b6101b06102d7565b6040518080602001828103825283818151815260200191508051906020019080838360005b838110156101f05780820151818401526020810190506101d5565b50505050905090810190601f16801561021d5780820380516001836020036101000a031916815260200191505b509250505060405180910390f35b610233610375565b6040518082815260200191505060405180910390f35b61025161037b565b6040518082815260200191505060405180910390f35b60025481565b60045481565b600660009054906101000a900460ff1681565b60015481565b6000809054906101000a900473ffffffffffffffffffffffffffffffffffffffff1681565b600660019054906101000a900473ffffffffffffffffffffffffffffffffffffffff1681565b60038054600181600116156101000203166002900480601f01602080910402602001604051908101604052809291908181526020018280546001816001161561010002031660029004801561036d5780601f106103425761010080835404028352916020019161036d565b820191906000526020600020905b81548152906001019060200180831161035057829003601f168201915b505050505081565b60085481565b6005548156fea265627a7a723158204b5e218710a9a7784b23d6019e1b955f94fa03e146d4545d01fe888a4844fc2664736f6c63430005100032456c20626c6f71756520696e696369616c206465626520736572206d61796f72206f20696775616c20616c20626c6f7175652061637475616c2e456c2070726f706965746172696f2070726f706f7263696f6e61646f206e6f2065732076c3a16c69646f2e456c20626c6f7175652066696e616c206465626520736572206d61796f722071756520656c20626c6f7175652066696e616c2e",
  "source": "pragma solidity >=0.4.21 <0.7.0;\n\ncontract Auction{\n    // Non-mutable data\n    address public owner;\n    uint    public startBlock;\n    uint    public endBlock;\n    string  public ipfsHash;\n    uint    public initialPrice;\n    uint    public minimumBidIncrement;\n    // Auction state\n    bool    public canceled;\n    address public highestBidder;\n    mapping(address => uint256) fundsByBidder;\n    uint    public highestBid;\n    bool    ownerHasWithdrawn;\n\n    // Constructor\n    constructor(address _owner, uint _startBlock, uint _endBlock, string memory _ipfs, uint _initialPrice, uint _minBidInc) public {\n        require(_startBlock < _endBlock, \"El bloque final debe ser mayor que el bloque final.\");\n        require(_startBlock >= block.number, \"El bloque inicial debe ser mayor o igual al bloque actual.\");\n        require(_owner != address(0), \"El propietario proporcionado no es válido.\");\n\n        owner = _owner;\n        startBlock = _startBlock;\n        endBlock = _endBlock;\n        ipfsHash = _ipfs;\n        initialPrice = _initialPrice;\n        minimumBidIncrement = _minBidInc;\n    }\n\n    /*function addAuction(address _owner, uint _startBlock, uint _endBlock, \n            string memory _ipfsHash, uint _initialPrice, uint _minimumBidIncrement) public {\n        require(_startBlock < _endBlock, \"El bloque final debe ser mayor que el bloque final.\");\n        require(_startBlock < block.number, \"El bloque inicial debe ser mayor o igual al bloque actual.\");\n        require(_owner != address(0), \"El propietario proporcionado no es válido.\");\n\n        auctionsCount++;\n        lots[auctionsCount] = AuctionData(_owner, _startBlock, _endBlock, _ipfsHash, _initialPrice, _minimumBidIncrement, \n                                            false, address(0), 10, false);\n        lots[auctionsCount].fundsByBidder[address(0)] = 0;\n    }\n\n    function placeBid(uint _auctionID, uint _bid) public {\n        require(_auctionID > 0 && _auctionID <= auctionsCount, \"No valid auction.\");\n        require(_bid > lots[_auctionID].minimumBidIncrement, \"No minimum bid increment.\");\n\n        // sender already exists in fundsByBidder\n        if (lots[_auctionID].fundsByBidder[msg.sender] > 0){\n            if (lots[_auctionID].fundsByBidder[msg.sender]+_bid > lots[_auctionID].highestBid){\n                lots[_auctionID].fundsByBidder[msg.sender] += _bid;\n                lots[_auctionID].highestBid = lots[_auctionID].fundsByBidder[msg.sender];\n                lots[_auctionID].highestBidder = msg.sender;\n            }\n        } else {\n            if (_bid > lots[_auctionID].highestBid){\n                lots[_auctionID].fundsByBidder[msg.sender] = _bid;\n                lots[_auctionID].highestBid = _bid;\n                lots[_auctionID].highestBidder = msg.sender;\n            }\n        }\n        //emit votedEvent(_candidateId);\n    }*/\n}",
  "sourcePath": "/Users/jrg_sln/Documents/ganache/auction/src/contracts/Auction.sol",
  "compiler": {
    "name": "solc",
    "version": "0.5.16+commit.9c3226ce.Emscripten.clang"
  },
  "schemaVersion": "3.2.0",
  "updatedAt": "2020-06-06T21:03:29.948Z",
  "devdoc": {
    "methods": {}
  },
  "userdoc": {
    "methods": {}
  }
}