{
  "contractName": "Auction",
  "abi": [
    {
      "inputs": [
        {
          "internalType": "address",
          "name": "_owner",
          "type": "address"
        },
        {
          "internalType": "uint256",
          "name": "_startBlock",
          "type": "uint256"
        },
        {
          "internalType": "uint256",
          "name": "_endBlock",
          "type": "uint256"
        },
        {
          "internalType": "uint256",
          "name": "_startDate",
          "type": "uint256"
        },
        {
          "internalType": "uint256",
          "name": "_endDate",
          "type": "uint256"
        },
        {
          "internalType": "string",
          "name": "_ipfs",
          "type": "string"
        },
        {
          "internalType": "uint256",
          "name": "_initialPrice",
          "type": "uint256"
        }
      ],
      "payable": false,
      "stateMutability": "nonpayable",
      "type": "constructor"
    },
    {
      "anonymous": false,
      "inputs": [
        {
          "indexed": false,
          "internalType": "address",
          "name": "bidder",
          "type": "address"
        },
        {
          "indexed": false,
          "internalType": "uint256",
          "name": "bid",
          "type": "uint256"
        },
        {
          "indexed": false,
          "internalType": "address",
          "name": "highestBidder",
          "type": "address"
        },
        {
          "indexed": false,
          "internalType": "uint256",
          "name": "highestBid",
          "type": "uint256"
        },
        {
          "indexed": false,
          "internalType": "uint256",
          "name": "highestBindingBid",
          "type": "uint256"
        }
      ],
      "name": "LogBid",
      "type": "event"
    },
    {
      "anonymous": false,
      "inputs": [],
      "name": "LogCanceled",
      "type": "event"
    },
    {
      "anonymous": false,
      "inputs": [
        {
          "indexed": false,
          "internalType": "address",
          "name": "withdrawer",
          "type": "address"
        },
        {
          "indexed": false,
          "internalType": "address",
          "name": "withdrawalAccount",
          "type": "address"
        },
        {
          "indexed": false,
          "internalType": "uint256",
          "name": "amount",
          "type": "uint256"
        }
      ],
      "name": "LogWithdrawal",
      "type": "event"
    },
    {
      "constant": true,
      "inputs": [],
      "name": "canceled",
      "outputs": [
        {
          "internalType": "bool",
          "name": "",
          "type": "bool"
        }
      ],
      "payable": false,
      "stateMutability": "view",
      "type": "function"
    },
    {
      "constant": true,
      "inputs": [],
      "name": "endBlock",
      "outputs": [
        {
          "internalType": "uint256",
          "name": "",
          "type": "uint256"
        }
      ],
      "payable": false,
      "stateMutability": "view",
      "type": "function"
    },
    {
      "constant": true,
      "inputs": [],
      "name": "endDate",
      "outputs": [
        {
          "internalType": "uint256",
          "name": "",
          "type": "uint256"
        }
      ],
      "payable": false,
      "stateMutability": "view",
      "type": "function"
    },
    {
      "constant": true,
      "inputs": [],
      "name": "highestBid",
      "outputs": [
        {
          "internalType": "uint256",
          "name": "",
          "type": "uint256"
        }
      ],
      "payable": false,
      "stateMutability": "view",
      "type": "function"
    },
    {
      "constant": true,
      "inputs": [],
      "name": "highestBidder",
      "outputs": [
        {
          "internalType": "address",
          "name": "",
          "type": "address"
        }
      ],
      "payable": false,
      "stateMutability": "view",
      "type": "function"
    },
    {
      "constant": true,
      "inputs": [],
      "name": "initialPrice",
      "outputs": [
        {
          "internalType": "uint256",
          "name": "",
          "type": "uint256"
        }
      ],
      "payable": false,
      "stateMutability": "view",
      "type": "function"
    },
    {
      "constant": true,
      "inputs": [],
      "name": "ipfsHash",
      "outputs": [
        {
          "internalType": "string",
          "name": "",
          "type": "string"
        }
      ],
      "payable": false,
      "stateMutability": "view",
      "type": "function"
    },
    {
      "constant": true,
      "inputs": [],
      "name": "owner",
      "outputs": [
        {
          "internalType": "address",
          "name": "",
          "type": "address"
        }
      ],
      "payable": false,
      "stateMutability": "view",
      "type": "function"
    },
    {
      "constant": true,
      "inputs": [],
      "name": "startBlock",
      "outputs": [
        {
          "internalType": "uint256",
          "name": "",
          "type": "uint256"
        }
      ],
      "payable": false,
      "stateMutability": "view",
      "type": "function"
    },
    {
      "constant": true,
      "inputs": [],
      "name": "startDate",
      "outputs": [
        {
          "internalType": "uint256",
          "name": "",
          "type": "uint256"
        }
      ],
      "payable": false,
      "stateMutability": "view",
      "type": "function"
    },
    {
      "constant": true,
      "inputs": [],
      "name": "getHighestBid",
      "outputs": [
        {
          "internalType": "uint256",
          "name": "",
          "type": "uint256"
        }
      ],
      "payable": false,
      "stateMutability": "view",
      "type": "function"
    },
    {
      "constant": true,
      "inputs": [
        {
          "internalType": "address",
          "name": "userAddress",
          "type": "address"
        }
      ],
      "name": "getFundsByBidder",
      "outputs": [
        {
          "internalType": "uint256",
          "name": "",
          "type": "uint256"
        }
      ],
      "payable": false,
      "stateMutability": "view",
      "type": "function"
    },
    {
      "constant": false,
      "inputs": [],
      "name": "placeBid",
      "outputs": [
        {
          "internalType": "bool",
          "name": "success",
          "type": "bool"
        }
      ],
      "payable": true,
      "stateMutability": "payable",
      "type": "function"
    },
    {
      "constant": false,
      "inputs": [],
      "name": "cancelAuction",
      "outputs": [
        {
          "internalType": "bool",
          "name": "success",
          "type": "bool"
        }
      ],
      "payable": false,
      "stateMutability": "nonpayable",
      "type": "function"
    },
    {
      "constant": false,
      "inputs": [],
      "name": "withdraw",
      "outputs": [
        {
          "internalType": "bool",
          "name": "success",
          "type": "bool"
        }
      ],
      "payable": false,
      "stateMutability": "nonpayable",
      "type": "function"
    }
  ],
  "bytecode": "0x60806040523480156200001157600080fd5b506040516200173a3803806200173a833981810160405260e08110156200003757600080fd5b810190808051906020019092919080519060200190929190805190602001909291908051906020019092919080519060200190929190805160405193929190846401000000008211156200008a57600080fd5b83820191506020820185811115620000a157600080fd5b8251866001820283011164010000000082111715620000bf57600080fd5b8083526020830192505050908051906020019080838360005b83811015620000f5578082015181840152602081019050620000d8565b50505050905090810190601f168015620001235780820380516001836020036101000a031916815260200191505b506040526020018051906020019092919050505084861062000191576040517f08c379a0000000000000000000000000000000000000000000000000000000008152600401808060200182810382526035815260200180620016d86035913960400191505060405180910390fd5b828410620001eb576040517f08c379a000000000000000000000000000000000000000000000000000000000815260040180806020018281038252602d8152602001806200170d602d913960400191505060405180910390fd5b600073ffffffffffffffffffffffffffffffffffffffff168773ffffffffffffffffffffffffffffffffffffffff16141562000273576040517f08c379a000000000000000000000000000000000000000000000000000000000815260040180806020018281038252602b815260200180620016ad602b913960400191505060405180910390fd5b866000806101000a81548173ffffffffffffffffffffffffffffffffffffffff021916908373ffffffffffffffffffffffffffffffffffffffff16021790555085430160018190555084430160028190555083600381905550826004819055508160059080519060200190620002eb92919062000300565b508060068190555050505050505050620003af565b828054600181600116156101000203166002900490600052602060002090601f016020900481019282601f106200034357805160ff191683800117855562000374565b8280016001018555821562000374579182015b828111156200037357825182559160200191906001019062000356565b5b50905062000383919062000387565b5090565b620003ac91905b80821115620003a85760008160009055506001016200038e565b5090565b90565b6112ee80620003bf6000396000f3fe6080604052600436106100e85760003560e01c80634979440a1161008a578063c24a0f8b11610059578063c24a0f8b14610364578063c623674f1461038f578063d57bde791461041f578063ecfc7ecc1461044a576100e8565b80634979440a1461025c5780638da5cb5b146102875780638fa8b790146102de57806391f901571461030d576100e8565b80631d0806ae116100c65780631d0806ae146101a85780633ccfd60b146101d35780633f9942ff1461020257806348cd4cb114610231576100e8565b806301e5d0bf146100ed578063083c6323146101525780630b97bc861461017d575b600080fd5b3480156100f957600080fd5b5061013c6004803603602081101561011057600080fd5b81019080803573ffffffffffffffffffffffffffffffffffffffff16906020019092919050505061046c565b6040518082815260200191505060405180910390f35b34801561015e57600080fd5b506101676104b5565b6040518082815260200191505060405180910390f35b34801561018957600080fd5b506101926104bb565b6040518082815260200191505060405180910390f35b3480156101b457600080fd5b506101bd6104c1565b6040518082815260200191505060405180910390f35b3480156101df57600080fd5b506101e86104c7565b604051808215151515815260200191505060405180910390f35b34801561020e57600080fd5b506102176108db565b604051808215151515815260200191505060405180910390f35b34801561023d57600080fd5b506102466108ee565b6040518082815260200191505060405180910390f35b34801561026857600080fd5b506102716108f4565b6040518082815260200191505060405180910390f35b34801561029357600080fd5b5061029c61095d565b604051808273ffffffffffffffffffffffffffffffffffffffff1673ffffffffffffffffffffffffffffffffffffffff16815260200191505060405180910390f35b3480156102ea57600080fd5b506102f3610982565b604051808215151515815260200191505060405180910390f35b34801561031957600080fd5b50610322610b72565b604051808273ffffffffffffffffffffffffffffffffffffffff1673ffffffffffffffffffffffffffffffffffffffff16815260200191505060405180910390f35b34801561037057600080fd5b50610379610b98565b6040518082815260200191505060405180910390f35b34801561039b57600080fd5b506103a4610b9e565b6040518080602001828103825283818151815260200191508051906020019080838360005b838110156103e45780820151818401526020810190506103c9565b50505050905090810190601f1680156104115780820380516001836020036101000a031916815260200191505b509250505060405180910390f35b34801561042b57600080fd5b50610434610c3c565b6040518082815260200191505060405180910390f35b610452610c42565b604051808215151515815260200191505060405180910390f35b6000600a60008373ffffffffffffffffffffffffffffffffffffffff1673ffffffffffffffffffffffffffffffffffffffff168152602001908152602001600020549050919050565b60025481565b60035481565b60065481565b60006002544311806104e55750600760009054906101000a900460ff165b61053a576040517f08c379a00000000000000000000000000000000000000000000000000000000081526004018080602001828103825260328152602001806111f56032913960400191505060405180910390fd5b600080600760009054906101000a900460ff161561059c57339150600a60008373ffffffffffffffffffffffffffffffffffffffff1673ffffffffffffffffffffffffffffffffffffffff168152602001908152602001600020549050610729565b6000809054906101000a900473ffffffffffffffffffffffffffffffffffffffff1673ffffffffffffffffffffffffffffffffffffffff163373ffffffffffffffffffffffffffffffffffffffff16141561063b57600960009054906101000a900473ffffffffffffffffffffffffffffffffffffffff16915060085490506001600b60006101000a81548160ff021916908315150217905550610728565b600960009054906101000a900473ffffffffffffffffffffffffffffffffffffffff1673ffffffffffffffffffffffffffffffffffffffff163373ffffffffffffffffffffffffffffffffffffffff1614156106e2576040517f08c379a00000000000000000000000000000000000000000000000000000000081526004018080602001828103825260328152602001806112886032913960400191505060405180910390fd5b339150600a60008373ffffffffffffffffffffffffffffffffffffffff1673ffffffffffffffffffffffffffffffffffffffff1681526020019081526020016000205490505b5b6000811161079f576040517f08c379a000000000000000000000000000000000000000000000000000000000815260040180806020018281038252601a8152602001807f4e6f2068617920666f6e646f732071756520726574697261722e00000000000081525060200191505060405180910390fd5b80600a60008473ffffffffffffffffffffffffffffffffffffffff1673ffffffffffffffffffffffffffffffffffffffff168152602001908152602001600020600082825403925050819055503373ffffffffffffffffffffffffffffffffffffffff166108fc829081150290604051600060405180830381858888f19350505050158015610832573d6000803e3d6000fd5b507f0ec497a8ae5b1ba29c60470ef651def995fac3deebbdcc56c47a4e5f51a4c2bd338383604051808473ffffffffffffffffffffffffffffffffffffffff1673ffffffffffffffffffffffffffffffffffffffff1681526020018373ffffffffffffffffffffffffffffffffffffffff1673ffffffffffffffffffffffffffffffffffffffff168152602001828152602001935050505060405180910390a160019250505090565b600760009054906101000a900460ff1681565b60015481565b6000600a6000600960009054906101000a900473ffffffffffffffffffffffffffffffffffffffff1673ffffffffffffffffffffffffffffffffffffffff1673ffffffffffffffffffffffffffffffffffffffff16815260200190815260200160002054905090565b6000809054906101000a900473ffffffffffffffffffffffffffffffffffffffff1681565b60008060009054906101000a900473ffffffffffffffffffffffffffffffffffffffff1673ffffffffffffffffffffffffffffffffffffffff163373ffffffffffffffffffffffffffffffffffffffff1614610a29576040517f08c379a000000000000000000000000000000000000000000000000000000000815260040180806020018281038252603d815260200180611227603d913960400191505060405180910390fd5b600254431115610aa1576040517f08c379a00000000000000000000000000000000000000000000000000000000081526004018080602001828103825260178152602001807f45737465206c6f7465206861207465726d696e61646f2e00000000000000000081525060200191505060405180910390fd5b600760009054906101000a900460ff1615610b24576040517f08c379a000000000000000000000000000000000000000000000000000000000815260040180806020018281038252601a8152602001807f45737465206c6f746520657374c3a12063616e63656c6164612e00000000000081525060200191505060405180910390fd5b6001600760006101000a81548160ff0219169083151502179055507f462b6ca7f632601af1295aeb320851f50e8e630a309173f23535845ea4bfb3b960405160405180910390a16001905090565b600960009054906101000a900473ffffffffffffffffffffffffffffffffffffffff1681565b60045481565b60058054600181600116156101000203166002900480601f016020809104026020016040519081016040528092919081815260200182805460018160011615610100020316600290048015610c345780601f10610c0957610100808354040283529160200191610c34565b820191906000526020600020905b815481529060010190602001808311610c1757829003601f168201915b505050505081565b60085481565b6000600154431015610c9f576040517f08c379a00000000000000000000000000000000000000000000000000000000081526004018080602001828103825260278152602001806111536027913960400191505060405180910390fd5b600254431115610d17576040517f08c379a00000000000000000000000000000000000000000000000000000000081526004018080602001828103825260178152602001807f45737465206c6f7465206861207465726d696e61646f2e00000000000000000081525060200191505060405180910390fd5b600760009054906101000a900460ff1615610d9a576040517f08c379a000000000000000000000000000000000000000000000000000000000815260040180806020018281038252601a8152602001807f45737465206c6f746520657374c3a12063616e63656c6164612e00000000000081525060200191505060405180910390fd5b6000809054906101000a900473ffffffffffffffffffffffffffffffffffffffff1673ffffffffffffffffffffffffffffffffffffffff163373ffffffffffffffffffffffffffffffffffffffff161415610e40576040517f08c379a000000000000000000000000000000000000000000000000000000000815260040180806020018281038252602f81526020018061119b602f913960400191505060405180910390fd5b60003411610e99576040517f08c379a000000000000000000000000000000000000000000000000000000000815260040180806020018281038252602181526020018061117a6021913960400191505060405180910390fd5b600034600a60003373ffffffffffffffffffffffffffffffffffffffff1673ffffffffffffffffffffffffffffffffffffffff168152602001908152602001600020540190506006548111610f39576040517f08c379a00000000000000000000000000000000000000000000000000000000081526004018080602001828103825260248152602001806112646024913960400191505060405180910390fd5b6008548111610f93576040517f08c379a000000000000000000000000000000000000000000000000000000000815260040180806020018281038252602b8152602001806111ca602b913960400191505060405180910390fd5b80600a60003373ffffffffffffffffffffffffffffffffffffffff1673ffffffffffffffffffffffffffffffffffffffff16815260200190815260200160002081905550600960009054906101000a900473ffffffffffffffffffffffffffffffffffffffff1673ffffffffffffffffffffffffffffffffffffffff163373ffffffffffffffffffffffffffffffffffffffff161461106e5733600960006101000a81548173ffffffffffffffffffffffffffffffffffffffff021916908373ffffffffffffffffffffffffffffffffffffffff1602179055505b806008819055507ff152f4ff5e488c55370a2d53925a55055228ebd8ec95bd0251bbb299e48786b03382600960009054906101000a900473ffffffffffffffffffffffffffffffffffffffff16600854600854604051808673ffffffffffffffffffffffffffffffffffffffff1673ffffffffffffffffffffffffffffffffffffffff1681526020018581526020018473ffffffffffffffffffffffffffffffffffffffff1673ffffffffffffffffffffffffffffffffffffffff1681526020018381526020018281526020019550505050505060405180910390a160019150509056fe4c6120737562617374612064652065737465206c6f7465206e6f20686120696e69636961646f2e5061796d656e74732062757374206265206d6f7265207468616e2030204554482e456c2070726f706965746172696f206e6f20707565646520656a65637574617220657374612066756e6369c3b36e2e4c612070756a61206573206d656e6f722061206c61206dc3a17320616c746120726567697374726164612e457374612073756261737461206e6f206861207369646f2063616e63656c616461206e69206861207465726d696e61646f2e536f6c6f20656c2070726f706965746172696f2064656c20636f6e747261746f20707565646520656a65637574617220657374612066756e6369c3b36e4c612070756a61206e6f2073757065726120656c2070726563696f20696e696369616c2e54c3ba2066756973746520656c2067616e61646f722064656c206c6f74652c206e6f2070756564657320726574697261722ea265627a7a72315820e0dc776cbb6d18468c046f7b89c729e86de8afc8ca6a9cb69839cbb46f3230e364736f6c63430005100032456c2070726f706965746172696f2070726f706f7263696f6e61646f206e6f2065732076c3a16c69646f2e456c20626c6f7175652066696e616c206465626520736572206d61796f722071756520656c20626c6f71756520696e696369616c2e4c612066656368612066696e616c206465626520736572206d61796f7220717565206c6120696e696369616c2e",
  "source": "pragma solidity >=0.4.21 <0.7.0;\n\ncontract Auction{\n    // Non-mutable data\n    address public owner;\n    uint    public startBlock;\n    uint    public endBlock;\n    uint    public startDate;\n    uint    public endDate;\n    string  public ipfsHash;\n    uint    public initialPrice;\n    // Auction state\n    bool    public canceled;\n    uint    public highestBid;\n    address public highestBidder;\n    mapping(address => uint256) fundsByBidder;\n    bool    ownerHasWithdrawn;\n\n    event LogBid(address bidder, uint bid, address highestBidder, uint highestBid, uint highestBindingBid);\n    event LogWithdrawal(address withdrawer, address withdrawalAccount, uint amount);\n    event LogCanceled();\n\n    constructor(address _owner, uint _startBlock, uint _endBlock, uint _startDate, uint _endDate,\n                     string memory _ipfs, uint _initialPrice) public {\n        require(_startBlock < _endBlock, \"El bloque final debe ser mayor que el bloque inicial.\");\n        require(_startDate < _endDate, \"La fecha final debe ser mayor que la inicial.\");\n        require(_owner != address(0), \"El propietario proporcionado no es válido.\");\n\n        owner = _owner;\n        startBlock = block.number + _startBlock;\n        endBlock = block.number + _endBlock;\n        startDate = _startDate;\n        endDate = _endDate;\n        ipfsHash = _ipfs;\n        initialPrice = _initialPrice;\n    }\n\n    function getHighestBid() public view returns (uint) {\n        return fundsByBidder[highestBidder];\n    }\n\n    function getFundsByBidder(address userAddress) public view returns (uint256){\n        return fundsByBidder[userAddress];\n    }\n\n    function placeBid() public payable onlyAfterStart onlyBeforeEnd onlyNotCanceled onlyNotOwner returns (bool success) {\n        require(msg.value > 0, \"Payments bust be more than 0 ETH.\");\n        uint newBid = fundsByBidder[msg.sender] + msg.value;\n        require(newBid > initialPrice, \"La puja no supera el precio inicial.\");\n        require(newBid > highestBid, \"La puja es menor a la más alta registrada.\");\n\n        fundsByBidder[msg.sender] = newBid;\n        if (msg.sender != highestBidder) {\n            highestBidder = msg.sender;\n        }\n        highestBid = newBid;\n\n        emit LogBid(msg.sender, newBid, highestBidder, highestBid, highestBid);\n        return true;\n    }\n\n    function cancelAuction() public onlyOwner onlyBeforeEnd onlyNotCanceled returns (bool success) {\n        canceled = true;\n        emit LogCanceled();\n        return true;\n    }\n\n    function withdraw() public onlyEndedOrCanceled returns (bool success) {\n        address withdrawalAccount;\n        uint withdrawalAmount;\n\n        if (canceled) {\n            withdrawalAccount = msg.sender;\n            withdrawalAmount = fundsByBidder[withdrawalAccount];\n        } else {\n            if (msg.sender == owner) {\n                withdrawalAccount = highestBidder;\n                withdrawalAmount = highestBid;\n                ownerHasWithdrawn = true;\n            } else {\n                require(msg.sender != highestBidder, \"Tú fuiste el ganador del lote, no puedes retirar.\");\n                withdrawalAccount = msg.sender;\n                withdrawalAmount = fundsByBidder[withdrawalAccount];\n            }\n        }\n\n        require(withdrawalAmount > 0, \"No hay fondos que retirar.\");\n        fundsByBidder[withdrawalAccount] -= withdrawalAmount;\n\n        msg.sender.transfer(withdrawalAmount);\n        emit LogWithdrawal(msg.sender, withdrawalAccount, withdrawalAmount);\n        return true;\n    }\n\n    modifier onlyOwner {\n        require(msg.sender == owner, \"Solo el propietario del contrato puede ejecutar esta función\");\n        _;\n    }\n\n    modifier onlyNotOwner {\n        require(msg.sender != owner, \"El propietario no puede ejecutar esta función.\");\n        _;\n    }\n\n    modifier onlyAfterStart {\n        require(block.number >= startBlock, \"La subasta de este lote no ha iniciado.\");\n        _;\n    }\n\n    modifier onlyBeforeEnd {\n        require(block.number <= endBlock, \"Este lote ha terminado.\");\n        _;\n    }\n\n    modifier onlyNotCanceled {\n        require(!canceled, \"Este lote está cancelada.\");\n        _;\n    }\n\n    modifier onlyEndedOrCanceled {\n        require(block.number > endBlock || canceled, \"Esta subasta no ha sido cancelada ni ha terminado.\");\n        _;\n    }\n}",
  "sourcePath": "/Users/jrg_sln/Documents/ganache/auction/src/contracts/Auction.sol",
  "compiler": {
    "name": "solc",
    "version": "0.5.16+commit.9c3226ce.Emscripten.clang"
  },
  "schemaVersion": "3.2.0",
  "updatedAt": "2020-06-15T01:23:17.760Z",
  "networkType": "ethereum",
  "devdoc": {
    "methods": {}
  },
  "userdoc": {
    "methods": {}
  }
}