{
  "contractName": "Auction",
  "abi": [
    {
      "inputs": [
        {
          "internalType": "address",
          "name": "_owner",
          "type": "address"
        },
        {
          "internalType": "uint256",
          "name": "_startBlock",
          "type": "uint256"
        },
        {
          "internalType": "uint256",
          "name": "_endBlock",
          "type": "uint256"
        },
        {
          "internalType": "string",
          "name": "_ipfs",
          "type": "string"
        },
        {
          "internalType": "uint256",
          "name": "_initialPrice",
          "type": "uint256"
        },
        {
          "internalType": "uint256",
          "name": "_minBidInc",
          "type": "uint256"
        }
      ],
      "payable": false,
      "stateMutability": "nonpayable",
      "type": "constructor"
    },
    {
      "anonymous": false,
      "inputs": [
        {
          "indexed": false,
          "internalType": "address",
          "name": "bidder",
          "type": "address"
        },
        {
          "indexed": false,
          "internalType": "uint256",
          "name": "bid",
          "type": "uint256"
        },
        {
          "indexed": false,
          "internalType": "address",
          "name": "highestBidder",
          "type": "address"
        },
        {
          "indexed": false,
          "internalType": "uint256",
          "name": "highestBid",
          "type": "uint256"
        },
        {
          "indexed": false,
          "internalType": "uint256",
          "name": "highestBindingBid",
          "type": "uint256"
        }
      ],
      "name": "LogBid",
      "type": "event"
    },
    {
      "anonymous": false,
      "inputs": [],
      "name": "LogCanceled",
      "type": "event"
    },
    {
      "anonymous": false,
      "inputs": [
        {
          "indexed": false,
          "internalType": "address",
          "name": "withdrawer",
          "type": "address"
        },
        {
          "indexed": false,
          "internalType": "address",
          "name": "withdrawalAccount",
          "type": "address"
        },
        {
          "indexed": false,
          "internalType": "uint256",
          "name": "amount",
          "type": "uint256"
        }
      ],
      "name": "LogWithdrawal",
      "type": "event"
    },
    {
      "constant": true,
      "inputs": [],
      "name": "canceled",
      "outputs": [
        {
          "internalType": "bool",
          "name": "",
          "type": "bool"
        }
      ],
      "payable": false,
      "stateMutability": "view",
      "type": "function"
    },
    {
      "constant": true,
      "inputs": [],
      "name": "endBlock",
      "outputs": [
        {
          "internalType": "uint256",
          "name": "",
          "type": "uint256"
        }
      ],
      "payable": false,
      "stateMutability": "view",
      "type": "function"
    },
    {
      "constant": true,
      "inputs": [
        {
          "internalType": "address",
          "name": "",
          "type": "address"
        }
      ],
      "name": "fundsByBidder",
      "outputs": [
        {
          "internalType": "uint256",
          "name": "",
          "type": "uint256"
        }
      ],
      "payable": false,
      "stateMutability": "view",
      "type": "function"
    },
    {
      "constant": true,
      "inputs": [],
      "name": "highestBid",
      "outputs": [
        {
          "internalType": "uint256",
          "name": "",
          "type": "uint256"
        }
      ],
      "payable": false,
      "stateMutability": "view",
      "type": "function"
    },
    {
      "constant": true,
      "inputs": [],
      "name": "highestBidder",
      "outputs": [
        {
          "internalType": "address",
          "name": "",
          "type": "address"
        }
      ],
      "payable": false,
      "stateMutability": "view",
      "type": "function"
    },
    {
      "constant": true,
      "inputs": [],
      "name": "initialPrice",
      "outputs": [
        {
          "internalType": "uint256",
          "name": "",
          "type": "uint256"
        }
      ],
      "payable": false,
      "stateMutability": "view",
      "type": "function"
    },
    {
      "constant": true,
      "inputs": [],
      "name": "ipfsHash",
      "outputs": [
        {
          "internalType": "string",
          "name": "",
          "type": "string"
        }
      ],
      "payable": false,
      "stateMutability": "view",
      "type": "function"
    },
    {
      "constant": true,
      "inputs": [],
      "name": "minimumBidIncrement",
      "outputs": [
        {
          "internalType": "uint256",
          "name": "",
          "type": "uint256"
        }
      ],
      "payable": false,
      "stateMutability": "view",
      "type": "function"
    },
    {
      "constant": true,
      "inputs": [],
      "name": "owner",
      "outputs": [
        {
          "internalType": "address",
          "name": "",
          "type": "address"
        }
      ],
      "payable": false,
      "stateMutability": "view",
      "type": "function"
    },
    {
      "constant": true,
      "inputs": [],
      "name": "startBlock",
      "outputs": [
        {
          "internalType": "uint256",
          "name": "",
          "type": "uint256"
        }
      ],
      "payable": false,
      "stateMutability": "view",
      "type": "function"
    },
    {
      "constant": true,
      "inputs": [],
      "name": "getHighestBid",
      "outputs": [
        {
          "internalType": "uint256",
          "name": "",
          "type": "uint256"
        }
      ],
      "payable": false,
      "stateMutability": "view",
      "type": "function"
    },
    {
      "constant": true,
      "inputs": [
        {
          "internalType": "address",
          "name": "userAddress",
          "type": "address"
        }
      ],
      "name": "getFundsByBidder",
      "outputs": [
        {
          "internalType": "uint256",
          "name": "",
          "type": "uint256"
        }
      ],
      "payable": false,
      "stateMutability": "view",
      "type": "function"
    },
    {
      "constant": false,
      "inputs": [],
      "name": "placeBid",
      "outputs": [
        {
          "internalType": "bool",
          "name": "success",
          "type": "bool"
        }
      ],
      "payable": true,
      "stateMutability": "payable",
      "type": "function"
    },
    {
      "constant": false,
      "inputs": [],
      "name": "cancelAuction",
      "outputs": [
        {
          "internalType": "bool",
          "name": "success",
          "type": "bool"
        }
      ],
      "payable": false,
      "stateMutability": "nonpayable",
      "type": "function"
    },
    {
      "constant": false,
      "inputs": [],
      "name": "withdraw",
      "outputs": [
        {
          "internalType": "bool",
          "name": "success",
          "type": "bool"
        }
      ],
      "payable": false,
      "stateMutability": "nonpayable",
      "type": "function"
    }
  ],
  "bytecode": "0x60806040523480156200001157600080fd5b506040516200173438038062001734833981810160405260c08110156200003757600080fd5b81019080805190602001909291908051906020019092919080519060200190929190805160405193929190846401000000008211156200007657600080fd5b838201915060208201858111156200008d57600080fd5b8251866001820283011164010000000082111715620000ab57600080fd5b8083526020830192505050908051906020019080838360005b83811015620000e1578082015181840152602081019050620000c4565b50505050905090810190601f1680156200010f5780820380516001836020036101000a031916815260200191505b50604052602001805190602001909291908051906020019092919050505083851062000187576040517f08c379a0000000000000000000000000000000000000000000000000000000008152600401808060200182810382526033815260200180620017016033913960400191505060405180910390fd5b43851015620001e2576040517f08c379a000000000000000000000000000000000000000000000000000000000815260040180806020018281038252603a8152602001806200169c603a913960400191505060405180910390fd5b600073ffffffffffffffffffffffffffffffffffffffff168673ffffffffffffffffffffffffffffffffffffffff1614156200026a576040517f08c379a000000000000000000000000000000000000000000000000000000000815260040180806020018281038252602b815260200180620016d6602b913960400191505060405180910390fd5b856000806101000a81548173ffffffffffffffffffffffffffffffffffffffff021916908373ffffffffffffffffffffffffffffffffffffffff16021790555084600181905550836002819055508260039080519060200190620002d0929190620002eb565b5081600481905550806005819055505050505050506200039a565b828054600181600116156101000203166002900490600052602060002090601f016020900481019282601f106200032e57805160ff19168380011785556200035f565b828001600101855582156200035f579182015b828111156200035e57825182559160200191906001019062000341565b5b5090506200036e919062000372565b5090565b6200039791905b808211156200039357600081600090555060010162000379565b5090565b90565b6112f280620003aa6000396000f3fe6080604052600436106100e85760003560e01c80638da5cb5b1161008a578063ce10cf8011610059578063ce10cf80146103c9578063d57bde791461042e578063ec89b5e014610459578063ecfc7ecc14610484576100e8565b80638da5cb5b1461025c5780638fa8b790146102b357806391f90157146102e2578063c623674f14610339576100e8565b80633ccfd60b116100c65780633ccfd60b146101a85780633f9942ff146101d757806348cd4cb1146102065780634979440a14610231576100e8565b806301e5d0bf146100ed578063083c6323146101525780631d0806ae1461017d575b600080fd5b3480156100f957600080fd5b5061013c6004803603602081101561011057600080fd5b81019080803573ffffffffffffffffffffffffffffffffffffffff1690602001909291905050506104a6565b6040518082815260200191505060405180910390f35b34801561015e57600080fd5b506101676104ef565b6040518082815260200191505060405180910390f35b34801561018957600080fd5b506101926104f5565b6040518082815260200191505060405180910390f35b3480156101b457600080fd5b506101bd6104fb565b604051808215151515815260200191505060405180910390f35b3480156101e357600080fd5b506101ec610a30565b604051808215151515815260200191505060405180910390f35b34801561021257600080fd5b5061021b610a43565b6040518082815260200191505060405180910390f35b34801561023d57600080fd5b50610246610a49565b6040518082815260200191505060405180910390f35b34801561026857600080fd5b50610271610ab2565b604051808273ffffffffffffffffffffffffffffffffffffffff1673ffffffffffffffffffffffffffffffffffffffff16815260200191505060405180910390f35b3480156102bf57600080fd5b506102c8610ad7565b604051808215151515815260200191505060405180910390f35b3480156102ee57600080fd5b506102f7610cc7565b604051808273ffffffffffffffffffffffffffffffffffffffff1673ffffffffffffffffffffffffffffffffffffffff16815260200191505060405180910390f35b34801561034557600080fd5b5061034e610ced565b6040518080602001828103825283818151815260200191508051906020019080838360005b8381101561038e578082015181840152602081019050610373565b50505050905090810190601f1680156103bb5780820380516001836020036101000a031916815260200191505b509250505060405180910390f35b3480156103d557600080fd5b50610418600480360360208110156103ec57600080fd5b81019080803573ffffffffffffffffffffffffffffffffffffffff169060200190929190505050610d8b565b6040518082815260200191505060405180910390f35b34801561043a57600080fd5b50610443610da3565b6040518082815260200191505060405180910390f35b34801561046557600080fd5b5061046e610da9565b6040518082815260200191505060405180910390f35b61048c610daf565b604051808215151515815260200191505060405180910390f35b6000600960008373ffffffffffffffffffffffffffffffffffffffff1673ffffffffffffffffffffffffffffffffffffffff168152602001908152602001600020549050919050565b60025481565b60045481565b60006002544311806105195750600660009054906101000a900460ff165b61056e576040517f08c379a00000000000000000000000000000000000000000000000000000000081526004018080602001828103825260258152602001806112296025913960400191505060405180910390fd5b600080600660009054906101000a900460ff16156105d057339150600960008373ffffffffffffffffffffffffffffffffffffffff1673ffffffffffffffffffffffffffffffffffffffff16815260200190815260200160002054905061081e565b6000809054906101000a900473ffffffffffffffffffffffffffffffffffffffff1673ffffffffffffffffffffffffffffffffffffffff163373ffffffffffffffffffffffffffffffffffffffff16141561066f57600860009054906101000a900473ffffffffffffffffffffffffffffffffffffffff16915060075490506001600a60006101000a81548160ff02191690831515021790555061081d565b600860009054906101000a900473ffffffffffffffffffffffffffffffffffffffff1673ffffffffffffffffffffffffffffffffffffffff163373ffffffffffffffffffffffffffffffffffffffff1614156107d657600860009054906101000a900473ffffffffffffffffffffffffffffffffffffffff169150600a60009054906101000a900460ff16156107685760096000600860009054906101000a900473ffffffffffffffffffffffffffffffffffffffff1673ffffffffffffffffffffffffffffffffffffffff1673ffffffffffffffffffffffffffffffffffffffff1681526020019081526020016000205490506107d1565b60075460096000600860009054906101000a900473ffffffffffffffffffffffffffffffffffffffff1673ffffffffffffffffffffffffffffffffffffffff1673ffffffffffffffffffffffffffffffffffffffff168152602001908152602001600020540390505b61081c565b339150600960008373ffffffffffffffffffffffffffffffffffffffff1673ffffffffffffffffffffffffffffffffffffffff1681526020019081526020016000205490505b5b5b60008114610894576040517f08c379a00000000000000000000000000000000000000000000000000000000081526004018080602001828103825260148152602001807f4e6f7468696e6720746f2077697468647261772e00000000000000000000000081525060200191505060405180910390fd5b80600960008473ffffffffffffffffffffffffffffffffffffffff1673ffffffffffffffffffffffffffffffffffffffff168152602001908152602001600020600082825403925050819055503373ffffffffffffffffffffffffffffffffffffffff166108fc829081150290604051600060405180830381858888f19350505050610988576040517f08c379a00000000000000000000000000000000000000000000000000000000081526004018080602001828103825260208152602001807f53656e646572207769746864726177616c20616d6f756e74206661696c65642e81525060200191505060405180910390fd5b7f0ec497a8ae5b1ba29c60470ef651def995fac3deebbdcc56c47a4e5f51a4c2bd338383604051808473ffffffffffffffffffffffffffffffffffffffff1673ffffffffffffffffffffffffffffffffffffffff1681526020018373ffffffffffffffffffffffffffffffffffffffff1673ffffffffffffffffffffffffffffffffffffffff168152602001828152602001935050505060405180910390a160019250505090565b600660009054906101000a900460ff1681565b60015481565b600060096000600860009054906101000a900473ffffffffffffffffffffffffffffffffffffffff1673ffffffffffffffffffffffffffffffffffffffff1673ffffffffffffffffffffffffffffffffffffffff16815260200190815260200160002054905090565b6000809054906101000a900473ffffffffffffffffffffffffffffffffffffffff1681565b60008060009054906101000a900473ffffffffffffffffffffffffffffffffffffffff1673ffffffffffffffffffffffffffffffffffffffff163373ffffffffffffffffffffffffffffffffffffffff1614610b7e576040517f08c379a00000000000000000000000000000000000000000000000000000000081526004018080602001828103825260288152602001806112966028913960400191505060405180910390fd5b600254431115610bf6576040517f08c379a00000000000000000000000000000000000000000000000000000000081526004018080602001828103825260158152602001807f546869732061756374696f6e20697320646f6e652e000000000000000000000081525060200191505060405180910390fd5b600660009054906101000a900460ff1615610c79576040517f08c379a00000000000000000000000000000000000000000000000000000000081526004018080602001828103825260178152602001807f546869732061756374696f6e2069732063616e63656c2e00000000000000000081525060200191505060405180910390fd5b6001600660006101000a81548160ff0219169083151502179055507f462b6ca7f632601af1295aeb320851f50e8e630a309173f23535845ea4bfb3b960405160405180910390a16001905090565b600860009054906101000a900473ffffffffffffffffffffffffffffffffffffffff1681565b60038054600181600116156101000203166002900480601f016020809104026020016040519081016040528092919081815260200182805460018160011615610100020316600290048015610d835780601f10610d5857610100808354040283529160200191610d83565b820191906000526020600020905b815481529060010190602001808311610d6657829003601f168201915b505050505081565b60096020528060005260406000206000915090505481565b60075481565b60055481565b6000600154431015610e0c576040517f08c379a00000000000000000000000000000000000000000000000000000000081526004018080602001828103825260218152602001806112086021913960400191505060405180910390fd5b600254431115610e84576040517f08c379a00000000000000000000000000000000000000000000000000000000081526004018080602001828103825260158152602001807f546869732061756374696f6e20697320646f6e652e000000000000000000000081525060200191505060405180910390fd5b600660009054906101000a900460ff1615610f07576040517f08c379a00000000000000000000000000000000000000000000000000000000081526004018080602001828103825260178152602001807f546869732061756374696f6e2069732063616e63656c2e00000000000000000081525060200191505060405180910390fd5b6000809054906101000a900473ffffffffffffffffffffffffffffffffffffffff1673ffffffffffffffffffffffffffffffffffffffff163373ffffffffffffffffffffffffffffffffffffffff161415610fad576040517f08c379a000000000000000000000000000000000000000000000000000000000815260040180806020018281038252602281526020018061124e6022913960400191505060405180910390fd5b60003411611006576040517f08c379a00000000000000000000000000000000000000000000000000000000081526004018080602001828103825260218152602001806111e76021913960400191505060405180910390fd5b600034600960003373ffffffffffffffffffffffffffffffffffffffff1673ffffffffffffffffffffffffffffffffffffffff1681526020019081526020016000205401905060075481116110a6576040517f08c379a00000000000000000000000000000000000000000000000000000000081526004018080602001828103825260268152602001806112706026913960400191505060405180910390fd5b600060096000600860009054906101000a900473ffffffffffffffffffffffffffffffffffffffff1673ffffffffffffffffffffffffffffffffffffffff1673ffffffffffffffffffffffffffffffffffffffff1681526020019081526020016000205490507ff152f4ff5e488c55370a2d53925a55055228ebd8ec95bd0251bbb299e48786b03383600860009054906101000a900473ffffffffffffffffffffffffffffffffffffffff168485604051808673ffffffffffffffffffffffffffffffffffffffff1673ffffffffffffffffffffffffffffffffffffffff1681526020018581526020018473ffffffffffffffffffffffffffffffffffffffff1673ffffffffffffffffffffffffffffffffffffffff1681526020018381526020018281526020019550505050505060405180910390a16001925050509056fe5061796d656e74732062757374206265206d6f7265207468616e2030204554482e546869732061756374696f6e20776173206e6f742073746172746564207965742e546869732061756374696f6e2069736e7420646f6e65206f722063616e63656c207965742e4f776e65722063616e6e6f7420706572666f726d65207468697320616374696f6e2e426964206d696e6f72207468616e20746865206869676865737420726567697374657265642e4f6e6c7920746865206f776e65722063616e20706572666f726d65207468697320616374696f6e2ea265627a7a7231582048859461fb3972ea4f92da13d6784cbb0c98bb144974d641d8a9cd154525c4a564736f6c63430005100032456c20626c6f71756520696e696369616c206465626520736572206d61796f72206f20696775616c20616c20626c6f7175652061637475616c2e456c2070726f706965746172696f2070726f706f7263696f6e61646f206e6f2065732076c3a16c69646f2e456c20626c6f7175652066696e616c206465626520736572206d61796f722071756520656c20626c6f7175652066696e616c2e",
  "source": "pragma solidity >=0.4.21 <0.7.0;\n\ncontract Auction{\n    // Non-mutable data\n    address public owner;\n    uint    public startBlock;\n    uint    public endBlock;\n    string  public ipfsHash;\n    uint    public initialPrice;\n    uint    public minimumBidIncrement;\n    // Auction state\n    bool    public canceled;\n    uint    public highestBid;\n    address public highestBidder;\n    mapping(address => uint256) public fundsByBidder;\n    bool    ownerHasWithdrawn;\n\n    event LogBid(address bidder, uint bid, address highestBidder, uint highestBid, uint highestBindingBid);\n    event LogWithdrawal(address withdrawer, address withdrawalAccount, uint amount);\n    event LogCanceled();\n\n    // Constructor\n    constructor(address _owner, uint _startBlock, uint _endBlock, string memory _ipfs, uint _initialPrice, uint _minBidInc) public {\n        require(_startBlock < _endBlock, \"El bloque final debe ser mayor que el bloque final.\");\n        require(_startBlock >= block.number, \"El bloque inicial debe ser mayor o igual al bloque actual.\");\n        require(_owner != address(0), \"El propietario proporcionado no es válido.\");\n\n        owner = _owner;\n        startBlock = _startBlock;\n        endBlock = _endBlock;\n        ipfsHash = _ipfs;\n        initialPrice = _initialPrice;\n        minimumBidIncrement = _minBidInc;\n    }\n\n    function getHighestBid() public view returns (uint) {\n        return fundsByBidder[highestBidder];\n    }\n\n    function getFundsByBidder(address userAddress) public view returns (uint256){\n        return fundsByBidder[userAddress];\n    }\n\n    function placeBid() public payable onlyAfterStart onlyBeforeEnd onlyNotCanceled onlyNotOwner returns (bool success) {\n        require(msg.value > 0, \"Payments bust be more than 0 ETH.\");\n\n        // calculate the user's total bid based on the current amount they've sent to the contract\n        // plus whatever has been sent with this transaction\n        uint newBid = fundsByBidder[msg.sender] + msg.value;\n        require(newBid > highestBid, \"Bid minor than the highest registered.\");\n\n        // grab the previous highest bid (before updating fundsByBidder, in case msg.sender is the\n        // highestBidder and is just increasing their maximum bid).\n        uint highestBid = fundsByBidder[highestBidder];\n        /* fundsByBidder[msg.sender] = newBid;\n\n        if (newBid <= highestBid) {\n            // if the user has overbid the highestBindingBid but not the highestBid, we simply\n            // increase the highestBindingBid and leave highestBidder alone.\n\n            // note that this case is impossible if msg.sender == highestBidder because you can never\n            // bid less ETH than you've already bid.\n\n            highestBid = min(newBid + bidIncrement, highestBid);\n        } else {\n            // if msg.sender is already the highest bidder, they must simply be wanting to raise\n            // their maximum bid, in which case we shouldn't increase the highestBindingBid.\n\n            // if the user is NOT highestBidder, and has overbid highestBid completely, we set them\n            // as the new highestBidder and recalculate highestBindingBid.\n\n            if (msg.sender != highestBidder) {\n                highestBidder = msg.sender;\n                highestBid = min(newBid, highestBid + bidIncrement);\n            }\n            highestBid = newBid;\n        } */\n\n        emit LogBid(msg.sender, newBid, highestBidder, highestBid, highestBid);\n        return true;\n    }\n\n    function min(uint a, uint b) private pure returns (uint) {\n        if (a < b){\n            return a;\n        }\n        return b;\n    }\n\n    function cancelAuction() public onlyOwner onlyBeforeEnd onlyNotCanceled returns (bool success) {\n        canceled = true;\n        emit LogCanceled();\n        return true;\n    }\n\n    function withdraw() public onlyEndedOrCanceled returns (bool success) {\n        address withdrawalAccount;\n        uint withdrawalAmount;\n\n        if (canceled) {\n            // if the auction was canceled, everyone should simply be allowed to withdraw their funds\n            withdrawalAccount = msg.sender;\n            withdrawalAmount = fundsByBidder[withdrawalAccount];\n\n        } else {\n            // the auction finished without being canceled\n\n            if (msg.sender == owner) {\n                // the auction's owner should be allowed to withdraw the highestBindingBid\n                withdrawalAccount = highestBidder;\n                withdrawalAmount = highestBid;\n                ownerHasWithdrawn = true;\n\n            } else if (msg.sender == highestBidder) {\n                // the highest bidder should only be allowed to withdraw the difference between their\n                // highest bid and the highestBindingBid\n                withdrawalAccount = highestBidder;\n                if (ownerHasWithdrawn) {\n                    withdrawalAmount = fundsByBidder[highestBidder];\n                } else {\n                    withdrawalAmount = fundsByBidder[highestBidder] - highestBid;\n                }\n\n            } else {\n                // anyone who participated but did not win the auction should be allowed to withdraw\n                // the full amount of their funds\n                withdrawalAccount = msg.sender;\n                withdrawalAmount = fundsByBidder[withdrawalAccount];\n            }\n        }\n\n        //if (withdrawalAmount == 0) throw;\n        require(withdrawalAmount == 0, \"Nothing to withdraw.\");\n\n        fundsByBidder[withdrawalAccount] -= withdrawalAmount;\n\n        // send the funds\n        //if (!msg.sender.send(withdrawalAmount)) throw;\n        require(msg.sender.send(withdrawalAmount), \"Sender withdrawal amount failed.\");\n\n        emit LogWithdrawal(msg.sender, withdrawalAccount, withdrawalAmount);\n\n        return true;\n    }\n\n    modifier onlyOwner {\n        //if (msg.sender != owner) throw;\n        require(msg.sender == owner, \"Only the owner can performe this action.\");\n        _;\n    }\n\n    modifier onlyNotOwner {\n        //if (msg.sender == owner) throw;\n        require(msg.sender != owner, \"Owner cannot performe this action.\");\n        _;\n    }\n\n    modifier onlyAfterStart {\n        //if (block.number < startBlock) throw;\n        require(block.number >= startBlock, \"This auction was not started yet.\");\n        _;\n    }\n\n    modifier onlyBeforeEnd {\n        //if (block.number > endBlock) throw;\n        require(block.number <= endBlock, \"This auction is done.\");\n        _;\n    }\n\n    modifier onlyNotCanceled {\n        //if (canceled) throw;\n        require(!canceled, \"This auction is cancel.\");\n        _;\n    }\n\n    modifier onlyEndedOrCanceled {\n        //if (block.number < endBlock && !canceled) throw;\n        require(block.number > endBlock || canceled, \"This auction isnt done or cancel yet.\");\n        _;\n    }\n}",
  "sourcePath": "/Users/jrg_sln/Documents/ganache/auction/src/contracts/Auction.sol",
  "compiler": {
    "name": "solc",
    "version": "0.5.16+commit.9c3226ce.Emscripten.clang"
  },
  "schemaVersion": "3.2.0",
  "updatedAt": "2020-06-10T02:31:53.020Z",
  "networkType": "ethereum",
  "devdoc": {
    "methods": {}
  },
  "userdoc": {
    "methods": {}
  }
}