{
  "contractName": "AuctionFactory",
  "abi": [
    {
      "inputs": [],
      "payable": false,
      "stateMutability": "nonpayable",
      "type": "constructor"
    },
    {
      "anonymous": false,
      "inputs": [
        {
          "indexed": false,
          "internalType": "address",
          "name": "auctionContract",
          "type": "address"
        },
        {
          "indexed": false,
          "internalType": "address",
          "name": "owner",
          "type": "address"
        }
      ],
      "name": "AuctionCreated",
      "type": "event"
    },
    {
      "constant": true,
      "inputs": [
        {
          "internalType": "uint256",
          "name": "",
          "type": "uint256"
        }
      ],
      "name": "auctions",
      "outputs": [
        {
          "internalType": "address",
          "name": "",
          "type": "address"
        }
      ],
      "payable": false,
      "stateMutability": "view",
      "type": "function"
    },
    {
      "constant": false,
      "inputs": [
        {
          "internalType": "uint256",
          "name": "_startBlock",
          "type": "uint256"
        },
        {
          "internalType": "uint256",
          "name": "_endBlock",
          "type": "uint256"
        },
        {
          "internalType": "string",
          "name": "_ipfs",
          "type": "string"
        },
        {
          "internalType": "uint256",
          "name": "_initialPrice",
          "type": "uint256"
        },
        {
          "internalType": "uint256",
          "name": "_minBidInc",
          "type": "uint256"
        }
      ],
      "name": "createAuction",
      "outputs": [],
      "payable": false,
      "stateMutability": "nonpayable",
      "type": "function"
    },
    {
      "constant": true,
      "inputs": [],
      "name": "getAllAuctions",
      "outputs": [
        {
          "internalType": "address[]",
          "name": "",
          "type": "address[]"
        }
      ],
      "payable": false,
      "stateMutability": "view",
      "type": "function"
    }
  ],
  "bytecode": "0x608060405234801561001057600080fd5b5061005e60a060c86040518060400160405280600781526020017f4e45532e6a7067000000000000000000000000000000000000000000000000008152506101f4600a6100fd60201b60201c565b6100ab606660c86040518060400160405280601181526020017f6261736562616c6c5f62616c6c2e6a70670000000000000000000000000000008152506105dc60326100fd60201b60201c565b6100f8606660c86040518060400160405280600b81526020017f62696379636c652e6a70670000000000000000000000000000000000000000008152506109c460646100fd60201b60201c565b610300565b6000338686868686604051610111906102f3565b808773ffffffffffffffffffffffffffffffffffffffff1673ffffffffffffffffffffffffffffffffffffffff16815260200186815260200185815260200180602001848152602001838152602001828103825285818151815260200191508051906020019080838360005b8381101561019857808201518184015260208101905061017d565b50505050905090810190601f1680156101c55780820380516001836020036101000a031916815260200191505b50975050505050505050604051809103906000f0801580156101eb573d6000803e3d6000fd5b50905060008190806001815401808255809150509060018203906000526020600020016000909192909190916101000a81548173ffffffffffffffffffffffffffffffffffffffff021916908373ffffffffffffffffffffffffffffffffffffffff160217905550507f0bdb7849ed0b0249d0f995067a2ca77769f68ab4c654931e262676effeb395f28133604051808373ffffffffffffffffffffffffffffffffffffffff1673ffffffffffffffffffffffffffffffffffffffff1681526020018273ffffffffffffffffffffffffffffffffffffffff1673ffffffffffffffffffffffffffffffffffffffff1681526020019250505060405180910390a1505050505050565b61074780610f4e83390190565b610c3f8061030f6000396000f3fe608060405234801561001057600080fd5b50600436106100415760003560e01c8063571a26a014610046578063cbd2bdfd146100b4578063f77a694a14610113575b600080fd5b6100726004803603602081101561005c57600080fd5b81019080803590602001909291905050506101f6565b604051808273ffffffffffffffffffffffffffffffffffffffff1673ffffffffffffffffffffffffffffffffffffffff16815260200191505060405180910390f35b6100bc610232565b6040518080602001828103825283818151815260200191508051906020019060200280838360005b838110156100ff5780820151818401526020810190506100e4565b505050509050019250505060405180910390f35b6101f4600480360360a081101561012957600080fd5b8101908080359060200190929190803590602001909291908035906020019064010000000081111561015a57600080fd5b82018360208201111561016c57600080fd5b8035906020019184600183028401116401000000008311171561018e57600080fd5b91908080601f016020809104026020016040519081016040528093929190818152602001838380828437600081840152601f19601f82011690508083019250505050505050919291929080359060200190929190803590602001909291905050506102c0565b005b6000818154811061020357fe5b906000526020600020016000915054906101000a900473ffffffffffffffffffffffffffffffffffffffff1681565b606060008054806020026020016040519081016040528092919081815260200182805480156102b657602002820191906000526020600020905b8160009054906101000a900473ffffffffffffffffffffffffffffffffffffffff1673ffffffffffffffffffffffffffffffffffffffff168152602001906001019080831161026c575b5050505050905090565b60003386868686866040516102d4906104b6565b808773ffffffffffffffffffffffffffffffffffffffff1673ffffffffffffffffffffffffffffffffffffffff16815260200186815260200185815260200180602001848152602001838152602001828103825285818151815260200191508051906020019080838360005b8381101561035b578082015181840152602081019050610340565b50505050905090810190601f1680156103885780820380516001836020036101000a031916815260200191505b50975050505050505050604051809103906000f0801580156103ae573d6000803e3d6000fd5b50905060008190806001815401808255809150509060018203906000526020600020016000909192909190916101000a81548173ffffffffffffffffffffffffffffffffffffffff021916908373ffffffffffffffffffffffffffffffffffffffff160217905550507f0bdb7849ed0b0249d0f995067a2ca77769f68ab4c654931e262676effeb395f28133604051808373ffffffffffffffffffffffffffffffffffffffff1673ffffffffffffffffffffffffffffffffffffffff1681526020018273ffffffffffffffffffffffffffffffffffffffff1673ffffffffffffffffffffffffffffffffffffffff1681526020019250505060405180910390a1505050505050565b610747806104c48339019056fe608060405234801561001057600080fd5b50604051610747380380610747833981810160405260c081101561003357600080fd5b810190808051906020019092919080519060200190929190805190602001909291908051604051939291908464010000000082111561007157600080fd5b8382019150602082018581111561008757600080fd5b82518660018202830111640100000000821117156100a457600080fd5b8083526020830192505050908051906020019080838360005b838110156100d85780820151818401526020810190506100bd565b50505050905090810190601f1680156101055780820380516001836020036101000a031916815260200191505b50604052602001805190602001909291908051906020019092919050505083851061017b576040517f08c379a00000000000000000000000000000000000000000000000000000000081526004018080602001828103825260338152602001806107146033913960400191505060405180910390fd5b600073ffffffffffffffffffffffffffffffffffffffff168673ffffffffffffffffffffffffffffffffffffffff161415610201576040517f08c379a000000000000000000000000000000000000000000000000000000000815260040180806020018281038252602b8152602001806106e9602b913960400191505060405180910390fd5b856000806101000a81548173ffffffffffffffffffffffffffffffffffffffff021916908373ffffffffffffffffffffffffffffffffffffffff1602179055508460018190555083600281905550826003908051906020019061026592919061027f565b508160048190555080600581905550505050505050610324565b828054600181600116156101000203166002900490600052602060002090601f016020900481019282601f106102c057805160ff19168380011785556102ee565b828001600101855582156102ee579182015b828111156102ed5782518255916020019190600101906102d2565b5b5090506102fb91906102ff565b5090565b61032191905b8082111561031d576000816000905550600101610305565b5090565b90565b6103b6806103336000396000f3fe608060405234801561001057600080fd5b50600436106100935760003560e01c80638da5cb5b116100665780638da5cb5b1461011457806391f901571461015e578063c623674f146101a8578063d57bde791461022b578063ec89b5e01461024957610093565b8063083c6323146100985780631d0806ae146100b65780633f9942ff146100d457806348cd4cb1146100f6575b600080fd5b6100a0610267565b6040518082815260200191505060405180910390f35b6100be61026d565b6040518082815260200191505060405180910390f35b6100dc610273565b604051808215151515815260200191505060405180910390f35b6100fe610286565b6040518082815260200191505060405180910390f35b61011c61028c565b604051808273ffffffffffffffffffffffffffffffffffffffff1673ffffffffffffffffffffffffffffffffffffffff16815260200191505060405180910390f35b6101666102b1565b604051808273ffffffffffffffffffffffffffffffffffffffff1673ffffffffffffffffffffffffffffffffffffffff16815260200191505060405180910390f35b6101b06102d7565b6040518080602001828103825283818151815260200191508051906020019080838360005b838110156101f05780820151818401526020810190506101d5565b50505050905090810190601f16801561021d5780820380516001836020036101000a031916815260200191505b509250505060405180910390f35b610233610375565b6040518082815260200191505060405180910390f35b61025161037b565b6040518082815260200191505060405180910390f35b60025481565b60045481565b600660009054906101000a900460ff1681565b60015481565b6000809054906101000a900473ffffffffffffffffffffffffffffffffffffffff1681565b600660019054906101000a900473ffffffffffffffffffffffffffffffffffffffff1681565b60038054600181600116156101000203166002900480601f01602080910402602001604051908101604052809291908181526020018280546001816001161561010002031660029004801561036d5780601f106103425761010080835404028352916020019161036d565b820191906000526020600020905b81548152906001019060200180831161035057829003601f168201915b505050505081565b60085481565b6005548156fea265627a7a7231582026e96ba853a0699b8cf0bd9048eb3b584a0b88ed1b406aacb36420745cbf83d464736f6c63430005100032456c2070726f706965746172696f2070726f706f7263696f6e61646f206e6f2065732076c3a16c69646f2e456c20626c6f7175652066696e616c206465626520736572206d61796f722071756520656c20626c6f7175652066696e616c2ea265627a7a72315820462f47c96c6e4199c02a62e4dbd558c01f6f0c8b9a5a4fc1e6ac79f3d6831a0a64736f6c63430005100032608060405234801561001057600080fd5b50604051610747380380610747833981810160405260c081101561003357600080fd5b810190808051906020019092919080519060200190929190805190602001909291908051604051939291908464010000000082111561007157600080fd5b8382019150602082018581111561008757600080fd5b82518660018202830111640100000000821117156100a457600080fd5b8083526020830192505050908051906020019080838360005b838110156100d85780820151818401526020810190506100bd565b50505050905090810190601f1680156101055780820380516001836020036101000a031916815260200191505b50604052602001805190602001909291908051906020019092919050505083851061017b576040517f08c379a00000000000000000000000000000000000000000000000000000000081526004018080602001828103825260338152602001806107146033913960400191505060405180910390fd5b600073ffffffffffffffffffffffffffffffffffffffff168673ffffffffffffffffffffffffffffffffffffffff161415610201576040517f08c379a000000000000000000000000000000000000000000000000000000000815260040180806020018281038252602b8152602001806106e9602b913960400191505060405180910390fd5b856000806101000a81548173ffffffffffffffffffffffffffffffffffffffff021916908373ffffffffffffffffffffffffffffffffffffffff1602179055508460018190555083600281905550826003908051906020019061026592919061027f565b508160048190555080600581905550505050505050610324565b828054600181600116156101000203166002900490600052602060002090601f016020900481019282601f106102c057805160ff19168380011785556102ee565b828001600101855582156102ee579182015b828111156102ed5782518255916020019190600101906102d2565b5b5090506102fb91906102ff565b5090565b61032191905b8082111561031d576000816000905550600101610305565b5090565b90565b6103b6806103336000396000f3fe608060405234801561001057600080fd5b50600436106100935760003560e01c80638da5cb5b116100665780638da5cb5b1461011457806391f901571461015e578063c623674f146101a8578063d57bde791461022b578063ec89b5e01461024957610093565b8063083c6323146100985780631d0806ae146100b65780633f9942ff146100d457806348cd4cb1146100f6575b600080fd5b6100a0610267565b6040518082815260200191505060405180910390f35b6100be61026d565b6040518082815260200191505060405180910390f35b6100dc610273565b604051808215151515815260200191505060405180910390f35b6100fe610286565b6040518082815260200191505060405180910390f35b61011c61028c565b604051808273ffffffffffffffffffffffffffffffffffffffff1673ffffffffffffffffffffffffffffffffffffffff16815260200191505060405180910390f35b6101666102b1565b604051808273ffffffffffffffffffffffffffffffffffffffff1673ffffffffffffffffffffffffffffffffffffffff16815260200191505060405180910390f35b6101b06102d7565b6040518080602001828103825283818151815260200191508051906020019080838360005b838110156101f05780820151818401526020810190506101d5565b50505050905090810190601f16801561021d5780820380516001836020036101000a031916815260200191505b509250505060405180910390f35b610233610375565b6040518082815260200191505060405180910390f35b61025161037b565b6040518082815260200191505060405180910390f35b60025481565b60045481565b600660009054906101000a900460ff1681565b60015481565b6000809054906101000a900473ffffffffffffffffffffffffffffffffffffffff1681565b600660019054906101000a900473ffffffffffffffffffffffffffffffffffffffff1681565b60038054600181600116156101000203166002900480601f01602080910402602001604051908101604052809291908181526020018280546001816001161561010002031660029004801561036d5780601f106103425761010080835404028352916020019161036d565b820191906000526020600020905b81548152906001019060200180831161035057829003601f168201915b505050505081565b60085481565b6005548156fea265627a7a7231582026e96ba853a0699b8cf0bd9048eb3b584a0b88ed1b406aacb36420745cbf83d464736f6c63430005100032456c2070726f706965746172696f2070726f706f7263696f6e61646f206e6f2065732076c3a16c69646f2e456c20626c6f7175652066696e616c206465626520736572206d61796f722071756520656c20626c6f7175652066696e616c2e",
  "source": "pragma solidity >=0.4.21 <0.7.0;\nimport { Auction } from './Auction.sol';\n\ncontract AuctionFactory{\n    address[] public auctions;\n\n    event AuctionCreated(\n        address auctionContract, address owner\n    );\n\n    constructor() public {\n        createAuction(160, 200, 'NES.jpg', 500, 10);\n        createAuction(102, 200, 'baseball_ball.jpg', 1500, 50);\n        createAuction(102, 200, 'bicycle.jpg', 2500, 100);\n    }\n\n    function createAuction(uint _startBlock, uint _endBlock, string memory _ipfs, uint _initialPrice, uint _minBidInc) public {\n        Auction newAuction = new Auction(msg.sender, _startBlock, _endBlock, _ipfs, _initialPrice, _minBidInc);\n        auctions.push(address(newAuction));\n        emit AuctionCreated(address(newAuction), msg.sender);\n    }\n\n    function getAllAuctions() public view returns (address[] memory) {\n        return auctions;\n    }\n}",
  "sourcePath": "/Users/jrg_sln/Documents/ganache/auction/src/contracts/AuctionFactory.sol",
  "compiler": {
    "name": "solc",
    "version": "0.5.16+commit.9c3226ce.Emscripten.clang"
  },
  "schemaVersion": "3.2.0",
  "updatedAt": "2020-06-04T21:56:40.355Z",
  "networkType": "ethereum",
  "devdoc": {
    "methods": {}
  },
  "userdoc": {
    "methods": {}
  }
}