{
  "contractName": "AuctionFactory",
  "abi": [
    {
      "inputs": [],
      "payable": false,
      "stateMutability": "nonpayable",
      "type": "constructor"
    },
    {
      "anonymous": false,
      "inputs": [
        {
          "indexed": false,
          "internalType": "address",
          "name": "auctionContract",
          "type": "address"
        },
        {
          "indexed": false,
          "internalType": "address",
          "name": "owner",
          "type": "address"
        }
      ],
      "name": "AuctionCreated",
      "type": "event"
    },
    {
      "constant": true,
      "inputs": [
        {
          "internalType": "uint256",
          "name": "",
          "type": "uint256"
        }
      ],
      "name": "auctions",
      "outputs": [
        {
          "internalType": "address",
          "name": "",
          "type": "address"
        }
      ],
      "payable": false,
      "stateMutability": "view",
      "type": "function"
    },
    {
      "constant": false,
      "inputs": [
        {
          "internalType": "string",
          "name": "_ipfs",
          "type": "string"
        },
        {
          "internalType": "uint256",
          "name": "_initialPrice",
          "type": "uint256"
        },
        {
          "internalType": "uint256",
          "name": "_minBidInc",
          "type": "uint256"
        }
      ],
      "name": "createAuction",
      "outputs": [],
      "payable": false,
      "stateMutability": "nonpayable",
      "type": "function"
    },
    {
      "constant": true,
      "inputs": [],
      "name": "getAllAuctions",
      "outputs": [
        {
          "internalType": "address[]",
          "name": "",
          "type": "address[]"
        }
      ],
      "payable": false,
      "stateMutability": "view",
      "type": "function"
    }
  ],
  "bytecode": "0x608060405234801561001057600080fd5b5061005a6040518060400160405280600781526020017f4e45532e6a7067000000000000000000000000000000000000000000000000008152506101f4600a6100f160201b60201c565b6100a36040518060400160405280601181526020017f6261736562616c6c5f62616c6c2e6a70670000000000000000000000000000008152506105dc60326100f160201b60201c565b6100ec6040518060400160405280600b81526020017f62696379636c652e6a70670000000000000000000000000000000000000000008152506109c460646100f160201b60201c565b6102f5565b6000334360324301868686604051610108906102e8565b808773ffffffffffffffffffffffffffffffffffffffff1673ffffffffffffffffffffffffffffffffffffffff16815260200186815260200185815260200180602001848152602001838152602001828103825285818151815260200191508051906020019080838360005b8381101561018f578082015181840152602081019050610174565b50505050905090810190601f1680156101bc5780820380516001836020036101000a031916815260200191505b50975050505050505050604051809103906000f0801580156101e2573d6000803e3d6000fd5b50905060008190806001815401808255809150509060018203906000526020600020016000909192909190916101000a81548173ffffffffffffffffffffffffffffffffffffffff021916908373ffffffffffffffffffffffffffffffffffffffff160217905550507f0bdb7849ed0b0249d0f995067a2ca77769f68ab4c654931e262676effeb395f28133604051808373ffffffffffffffffffffffffffffffffffffffff1673ffffffffffffffffffffffffffffffffffffffff1681526020018273ffffffffffffffffffffffffffffffffffffffff1673ffffffffffffffffffffffffffffffffffffffff1681526020019250505060405180910390a150505050565b6107da80610fc383390190565b610cbf806103046000396000f3fe608060405234801561001057600080fd5b50600436106100415760003560e01c80632dbddb4114610046578063571a26a014610115578063cbd2bdfd14610183575b600080fd5b6101136004803603606081101561005c57600080fd5b810190808035906020019064010000000081111561007957600080fd5b82018360208201111561008b57600080fd5b803590602001918460018302840111640100000000831117156100ad57600080fd5b91908080601f016020809104026020016040519081016040528093929190818152602001838380828437600081840152601f19601f82011690508083019250505050505050919291929080359060200190929190803590602001909291905050506101e2565b005b6101416004803603602081101561012b57600080fd5b81019080803590602001909291905050506103d9565b604051808273ffffffffffffffffffffffffffffffffffffffff1673ffffffffffffffffffffffffffffffffffffffff16815260200191505060405180910390f35b61018b610415565b6040518080602001828103825283818151815260200191508051906020019060200280838360005b838110156101ce5780820151818401526020810190506101b3565b505050509050019250505060405180910390f35b60003343603243018686866040516101f9906104a3565b808773ffffffffffffffffffffffffffffffffffffffff1673ffffffffffffffffffffffffffffffffffffffff16815260200186815260200185815260200180602001848152602001838152602001828103825285818151815260200191508051906020019080838360005b83811015610280578082015181840152602081019050610265565b50505050905090810190601f1680156102ad5780820380516001836020036101000a031916815260200191505b50975050505050505050604051809103906000f0801580156102d3573d6000803e3d6000fd5b50905060008190806001815401808255809150509060018203906000526020600020016000909192909190916101000a81548173ffffffffffffffffffffffffffffffffffffffff021916908373ffffffffffffffffffffffffffffffffffffffff160217905550507f0bdb7849ed0b0249d0f995067a2ca77769f68ab4c654931e262676effeb395f28133604051808373ffffffffffffffffffffffffffffffffffffffff1673ffffffffffffffffffffffffffffffffffffffff1681526020018273ffffffffffffffffffffffffffffffffffffffff1673ffffffffffffffffffffffffffffffffffffffff1681526020019250505060405180910390a150505050565b600081815481106103e657fe5b906000526020600020016000915054906101000a900473ffffffffffffffffffffffffffffffffffffffff1681565b6060600080548060200260200160405190810160405280929190818152602001828054801561049957602002820191906000526020600020905b8160009054906101000a900473ffffffffffffffffffffffffffffffffffffffff1673ffffffffffffffffffffffffffffffffffffffff168152602001906001019080831161044f575b5050505050905090565b6107da806104b18339019056fe608060405234801561001057600080fd5b506040516107da3803806107da833981810160405260c081101561003357600080fd5b810190808051906020019092919080519060200190929190805190602001909291908051604051939291908464010000000082111561007157600080fd5b8382019150602082018581111561008757600080fd5b82518660018202830111640100000000821117156100a457600080fd5b8083526020830192505050908051906020019080838360005b838110156100d85780820151818401526020810190506100bd565b50505050905090810190601f1680156101055780820380516001836020036101000a031916815260200191505b50604052602001805190602001909291908051906020019092919050505083851061017b576040517f08c379a00000000000000000000000000000000000000000000000000000000081526004018080602001828103825260338152602001806107a76033913960400191505060405180910390fd5b438510156101d4576040517f08c379a000000000000000000000000000000000000000000000000000000000815260040180806020018281038252603a815260200180610742603a913960400191505060405180910390fd5b600073ffffffffffffffffffffffffffffffffffffffff168673ffffffffffffffffffffffffffffffffffffffff16141561025a576040517f08c379a000000000000000000000000000000000000000000000000000000000815260040180806020018281038252602b81526020018061077c602b913960400191505060405180910390fd5b856000806101000a81548173ffffffffffffffffffffffffffffffffffffffff021916908373ffffffffffffffffffffffffffffffffffffffff160217905550846001819055508360028190555082600390805190602001906102be9291906102d8565b50816004819055508060058190555050505050505061037d565b828054600181600116156101000203166002900490600052602060002090601f016020900481019282601f1061031957805160ff1916838001178555610347565b82800160010185558215610347579182015b8281111561034657825182559160200191906001019061032b565b5b5090506103549190610358565b5090565b61037a91905b8082111561037657600081600090555060010161035e565b5090565b90565b6103b68061038c6000396000f3fe608060405234801561001057600080fd5b50600436106100935760003560e01c80638da5cb5b116100665780638da5cb5b1461011457806391f901571461015e578063c623674f146101a8578063d57bde791461022b578063ec89b5e01461024957610093565b8063083c6323146100985780631d0806ae146100b65780633f9942ff146100d457806348cd4cb1146100f6575b600080fd5b6100a0610267565b6040518082815260200191505060405180910390f35b6100be61026d565b6040518082815260200191505060405180910390f35b6100dc610273565b604051808215151515815260200191505060405180910390f35b6100fe610286565b6040518082815260200191505060405180910390f35b61011c61028c565b604051808273ffffffffffffffffffffffffffffffffffffffff1673ffffffffffffffffffffffffffffffffffffffff16815260200191505060405180910390f35b6101666102b1565b604051808273ffffffffffffffffffffffffffffffffffffffff1673ffffffffffffffffffffffffffffffffffffffff16815260200191505060405180910390f35b6101b06102d7565b6040518080602001828103825283818151815260200191508051906020019080838360005b838110156101f05780820151818401526020810190506101d5565b50505050905090810190601f16801561021d5780820380516001836020036101000a031916815260200191505b509250505060405180910390f35b610233610375565b6040518082815260200191505060405180910390f35b61025161037b565b6040518082815260200191505060405180910390f35b60025481565b60045481565b600660009054906101000a900460ff1681565b60015481565b6000809054906101000a900473ffffffffffffffffffffffffffffffffffffffff1681565b600660019054906101000a900473ffffffffffffffffffffffffffffffffffffffff1681565b60038054600181600116156101000203166002900480601f01602080910402602001604051908101604052809291908181526020018280546001816001161561010002031660029004801561036d5780601f106103425761010080835404028352916020019161036d565b820191906000526020600020905b81548152906001019060200180831161035057829003601f168201915b505050505081565b60085481565b6005548156fea265627a7a723158204b5e218710a9a7784b23d6019e1b955f94fa03e146d4545d01fe888a4844fc2664736f6c63430005100032456c20626c6f71756520696e696369616c206465626520736572206d61796f72206f20696775616c20616c20626c6f7175652061637475616c2e456c2070726f706965746172696f2070726f706f7263696f6e61646f206e6f2065732076c3a16c69646f2e456c20626c6f7175652066696e616c206465626520736572206d61796f722071756520656c20626c6f7175652066696e616c2ea265627a7a723158200bfc59cab0d287ea560b203b374c4fc45071e22e75d5b8f2ab9f122f3f8b624764736f6c63430005100032608060405234801561001057600080fd5b506040516107da3803806107da833981810160405260c081101561003357600080fd5b810190808051906020019092919080519060200190929190805190602001909291908051604051939291908464010000000082111561007157600080fd5b8382019150602082018581111561008757600080fd5b82518660018202830111640100000000821117156100a457600080fd5b8083526020830192505050908051906020019080838360005b838110156100d85780820151818401526020810190506100bd565b50505050905090810190601f1680156101055780820380516001836020036101000a031916815260200191505b50604052602001805190602001909291908051906020019092919050505083851061017b576040517f08c379a00000000000000000000000000000000000000000000000000000000081526004018080602001828103825260338152602001806107a76033913960400191505060405180910390fd5b438510156101d4576040517f08c379a000000000000000000000000000000000000000000000000000000000815260040180806020018281038252603a815260200180610742603a913960400191505060405180910390fd5b600073ffffffffffffffffffffffffffffffffffffffff168673ffffffffffffffffffffffffffffffffffffffff16141561025a576040517f08c379a000000000000000000000000000000000000000000000000000000000815260040180806020018281038252602b81526020018061077c602b913960400191505060405180910390fd5b856000806101000a81548173ffffffffffffffffffffffffffffffffffffffff021916908373ffffffffffffffffffffffffffffffffffffffff160217905550846001819055508360028190555082600390805190602001906102be9291906102d8565b50816004819055508060058190555050505050505061037d565b828054600181600116156101000203166002900490600052602060002090601f016020900481019282601f1061031957805160ff1916838001178555610347565b82800160010185558215610347579182015b8281111561034657825182559160200191906001019061032b565b5b5090506103549190610358565b5090565b61037a91905b8082111561037657600081600090555060010161035e565b5090565b90565b6103b68061038c6000396000f3fe608060405234801561001057600080fd5b50600436106100935760003560e01c80638da5cb5b116100665780638da5cb5b1461011457806391f901571461015e578063c623674f146101a8578063d57bde791461022b578063ec89b5e01461024957610093565b8063083c6323146100985780631d0806ae146100b65780633f9942ff146100d457806348cd4cb1146100f6575b600080fd5b6100a0610267565b6040518082815260200191505060405180910390f35b6100be61026d565b6040518082815260200191505060405180910390f35b6100dc610273565b604051808215151515815260200191505060405180910390f35b6100fe610286565b6040518082815260200191505060405180910390f35b61011c61028c565b604051808273ffffffffffffffffffffffffffffffffffffffff1673ffffffffffffffffffffffffffffffffffffffff16815260200191505060405180910390f35b6101666102b1565b604051808273ffffffffffffffffffffffffffffffffffffffff1673ffffffffffffffffffffffffffffffffffffffff16815260200191505060405180910390f35b6101b06102d7565b6040518080602001828103825283818151815260200191508051906020019080838360005b838110156101f05780820151818401526020810190506101d5565b50505050905090810190601f16801561021d5780820380516001836020036101000a031916815260200191505b509250505060405180910390f35b610233610375565b6040518082815260200191505060405180910390f35b61025161037b565b6040518082815260200191505060405180910390f35b60025481565b60045481565b600660009054906101000a900460ff1681565b60015481565b6000809054906101000a900473ffffffffffffffffffffffffffffffffffffffff1681565b600660019054906101000a900473ffffffffffffffffffffffffffffffffffffffff1681565b60038054600181600116156101000203166002900480601f01602080910402602001604051908101604052809291908181526020018280546001816001161561010002031660029004801561036d5780601f106103425761010080835404028352916020019161036d565b820191906000526020600020905b81548152906001019060200180831161035057829003601f168201915b505050505081565b60085481565b6005548156fea265627a7a723158204b5e218710a9a7784b23d6019e1b955f94fa03e146d4545d01fe888a4844fc2664736f6c63430005100032456c20626c6f71756520696e696369616c206465626520736572206d61796f72206f20696775616c20616c20626c6f7175652061637475616c2e456c2070726f706965746172696f2070726f706f7263696f6e61646f206e6f2065732076c3a16c69646f2e456c20626c6f7175652066696e616c206465626520736572206d61796f722071756520656c20626c6f7175652066696e616c2e",
  "source": "pragma solidity >=0.4.21 <0.7.0;\nimport { Auction } from './Auction.sol';\n\ncontract AuctionFactory{\n    address[] public auctions;\n\n    event AuctionCreated(\n        address auctionContract, address owner\n    );\n\n    constructor() public {\n        createAuction('NES.jpg', 500, 10);\n        createAuction('baseball_ball.jpg', 1500, 50);\n        createAuction('bicycle.jpg', 2500, 100);\n    }\n\n    function createAuction(string memory _ipfs, uint _initialPrice, uint _minBidInc) public {\n        Auction newAuction = new Auction(msg.sender, block.number, block.number+50, _ipfs, _initialPrice, _minBidInc);\n        auctions.push(address(newAuction));\n        emit AuctionCreated(address(newAuction), msg.sender);\n    }\n\n    function getAllAuctions() public view returns (address[] memory) {\n        return auctions;\n    }\n}",
  "sourcePath": "/Users/jrg_sln/Documents/ganache/auction/src/contracts/AuctionFactory.sol",
  "compiler": {
    "name": "solc",
    "version": "0.5.16+commit.9c3226ce.Emscripten.clang"
  },
  "schemaVersion": "3.2.0",
  "updatedAt": "2020-06-06T21:55:13.361Z",
  "networkType": "ethereum",
  "devdoc": {
    "methods": {}
  },
  "userdoc": {
    "methods": {}
  }
}