{
  "contractName": "AuctionFactory",
  "abi": [
    {
      "inputs": [],
      "payable": false,
      "stateMutability": "nonpayable",
      "type": "constructor"
    },
    {
      "anonymous": false,
      "inputs": [
        {
          "indexed": false,
          "internalType": "address",
          "name": "auctionContract",
          "type": "address"
        },
        {
          "indexed": false,
          "internalType": "address",
          "name": "owner",
          "type": "address"
        },
        {
          "indexed": false,
          "internalType": "uint256",
          "name": "numAuctions",
          "type": "uint256"
        },
        {
          "indexed": false,
          "internalType": "address[]",
          "name": "allAuctions",
          "type": "address[]"
        }
      ],
      "name": "AuctionCreated",
      "type": "event"
    },
    {
      "anonymous": false,
      "inputs": [
        {
          "indexed": false,
          "internalType": "address",
          "name": "withdrawer",
          "type": "address"
        },
        {
          "indexed": false,
          "internalType": "uint256",
          "name": "withdrawalAccount",
          "type": "uint256"
        }
      ],
      "name": "LogWithdrawal",
      "type": "event"
    },
    {
      "constant": true,
      "inputs": [
        {
          "internalType": "uint256",
          "name": "",
          "type": "uint256"
        }
      ],
      "name": "auctions",
      "outputs": [
        {
          "internalType": "address",
          "name": "",
          "type": "address"
        }
      ],
      "payable": false,
      "stateMutability": "view",
      "type": "function"
    },
    {
      "constant": true,
      "inputs": [],
      "name": "owner",
      "outputs": [
        {
          "internalType": "address payable",
          "name": "",
          "type": "address"
        }
      ],
      "payable": false,
      "stateMutability": "view",
      "type": "function"
    },
    {
      "constant": false,
      "inputs": [
        {
          "internalType": "uint256",
          "name": "_startBlock",
          "type": "uint256"
        },
        {
          "internalType": "uint256",
          "name": "_endBlock",
          "type": "uint256"
        },
        {
          "internalType": "uint256",
          "name": "_startDate",
          "type": "uint256"
        },
        {
          "internalType": "uint256",
          "name": "_endDate",
          "type": "uint256"
        },
        {
          "internalType": "string",
          "name": "_ipfsHash",
          "type": "string"
        },
        {
          "internalType": "uint256",
          "name": "_initialPrice",
          "type": "uint256"
        }
      ],
      "name": "createAuction",
      "outputs": [],
      "payable": true,
      "stateMutability": "payable",
      "type": "function"
    },
    {
      "constant": true,
      "inputs": [],
      "name": "getAllAuctions",
      "outputs": [
        {
          "internalType": "address[]",
          "name": "",
          "type": "address[]"
        }
      ],
      "payable": false,
      "stateMutability": "view",
      "type": "function"
    },
    {
      "constant": true,
      "inputs": [],
      "name": "getBalance",
      "outputs": [
        {
          "internalType": "uint256",
          "name": "",
          "type": "uint256"
        }
      ],
      "payable": false,
      "stateMutability": "view",
      "type": "function"
    },
    {
      "constant": false,
      "inputs": [],
      "name": "withdraw",
      "outputs": [
        {
          "internalType": "bool",
          "name": "success",
          "type": "bool"
        }
      ],
      "payable": false,
      "stateMutability": "nonpayable",
      "type": "function"
    }
  ],
  "bytecode": "0x608060405234801561001057600080fd5b50336000806101000a81548173ffffffffffffffffffffffffffffffffffffffff021916908373ffffffffffffffffffffffffffffffffffffffff1602179055506120c1806100606000396000f3fe6080604052600436106100555760003560e01c806312065fe01461005a5780633ccfd60b14610085578063571a26a0146100b45780638da5cb5b1461012f578063cbd2bdfd14610186578063d584891f146101f2575b600080fd5b34801561006657600080fd5b5061006f6102df565b6040518082815260200191505060405180910390f35b34801561009157600080fd5b5061009a6102fe565b604051808215151515815260200191505060405180910390f35b3480156100c057600080fd5b506100ed600480360360208110156100d757600080fd5b81019080803590602001909291905050506104b3565b604051808273ffffffffffffffffffffffffffffffffffffffff1673ffffffffffffffffffffffffffffffffffffffff16815260200191505060405180910390f35b34801561013b57600080fd5b506101446104ef565b604051808273ffffffffffffffffffffffffffffffffffffffff1673ffffffffffffffffffffffffffffffffffffffff16815260200191505060405180910390f35b34801561019257600080fd5b5061019b610514565b6040518080602001828103825283818151815260200191508051906020019060200280838360005b838110156101de5780820151818401526020810190506101c3565b505050509050019250505060405180910390f35b6102dd600480360360c081101561020857600080fd5b81019080803590602001909291908035906020019092919080359060200190929190803590602001909291908035906020019064010000000081111561024d57600080fd5b82018360208201111561025f57600080fd5b8035906020019184600183028401116401000000008311171561028157600080fd5b91908080601f016020809104026020016040519081016040528093929190818152602001838380828437600081840152601f19601f820116905080830192505050505050509192919290803590602001909291905050506105a2565b005b60003073ffffffffffffffffffffffffffffffffffffffff1631905090565b60008060009054906101000a900473ffffffffffffffffffffffffffffffffffffffff1673ffffffffffffffffffffffffffffffffffffffff163373ffffffffffffffffffffffffffffffffffffffff16146103a5576040517f08c379a000000000000000000000000000000000000000000000000000000000815260040180806020018281038252603e815260200180612020603e913960400191505060405180910390fd5b60003073ffffffffffffffffffffffffffffffffffffffff163190506000809054906101000a900473ffffffffffffffffffffffffffffffffffffffff1673ffffffffffffffffffffffffffffffffffffffff166108fc3073ffffffffffffffffffffffffffffffffffffffff16319081150290604051600060405180830381858888f1935050505015801561043f573d6000803e3d6000fd5b507fb4214c8c54fc7442f36d3682f59aebaf09358a4431835b30efb29d52cf9e1e913382604051808373ffffffffffffffffffffffffffffffffffffffff1673ffffffffffffffffffffffffffffffffffffffff1681526020018281526020019250505060405180910390a1600191505090565b600181815481106104c057fe5b906000526020600020016000915054906101000a900473ffffffffffffffffffffffffffffffffffffffff1681565b6000809054906101000a900473ffffffffffffffffffffffffffffffffffffffff1681565b6060600180548060200260200160405190810160405280929190818152602001828054801561059857602002820191906000526020600020905b8160009054906101000a900473ffffffffffffffffffffffffffffffffffffffff1673ffffffffffffffffffffffffffffffffffffffff168152602001906001019080831161054e575b5050505050905090565b662386f26fc10000341015610602576040517f08c379a000000000000000000000000000000000000000000000000000000000815260040180806020018281038252602f81526020018061205e602f913960400191505060405180910390fd5b6000338787878787876040516106179061088b565b808873ffffffffffffffffffffffffffffffffffffffff1673ffffffffffffffffffffffffffffffffffffffff16815260200187815260200186815260200185815260200184815260200180602001838152602001828103825284818151815260200191508051906020019080838360005b838110156106a4578082015181840152602081019050610689565b50505050905090810190601f1680156106d15780820380516001836020036101000a031916815260200191505b5098505050505050505050604051809103906000f0801580156106f8573d6000803e3d6000fd5b50905060018190806001815401808255809150509060018203906000526020600020016000909192909190916101000a81548173ffffffffffffffffffffffffffffffffffffffff021916908373ffffffffffffffffffffffffffffffffffffffff160217905550507f0d314047f0d1e39dbbd521f0844c35332083a15926b906540faa68e1a4262b6881336001805490506001604051808573ffffffffffffffffffffffffffffffffffffffff1673ffffffffffffffffffffffffffffffffffffffff1681526020018473ffffffffffffffffffffffffffffffffffffffff1673ffffffffffffffffffffffffffffffffffffffff16815260200183815260200180602001828103825283818154815260200191508054801561087157602002820191906000526020600020905b8160009054906101000a900473ffffffffffffffffffffffffffffffffffffffff1673ffffffffffffffffffffffffffffffffffffffff1681526020019060010190808311610827575b50509550505050505060405180910390a150505050505050565b611787806108998339019056fe60806040523480156200001157600080fd5b506040516200178738038062001787833981810160405260e08110156200003757600080fd5b810190808051906020019092919080519060200190929190805190602001909291908051906020019092919080519060200190929190805160405193929190846401000000008211156200008a57600080fd5b83820191506020820185811115620000a157600080fd5b8251866001820283011164010000000082111715620000bf57600080fd5b8083526020830192505050908051906020019080838360005b83811015620000f5578082015181840152602081019050620000d8565b50505050905090810190601f168015620001235780820380516001836020036101000a031916815260200191505b506040526020018051906020019092919050505084861062000191576040517f08c379a0000000000000000000000000000000000000000000000000000000008152600401808060200182810382526035815260200180620017256035913960400191505060405180910390fd5b828410620001eb576040517f08c379a000000000000000000000000000000000000000000000000000000000815260040180806020018281038252602d8152602001806200175a602d913960400191505060405180910390fd5b600073ffffffffffffffffffffffffffffffffffffffff168773ffffffffffffffffffffffffffffffffffffffff16141562000273576040517f08c379a000000000000000000000000000000000000000000000000000000000815260040180806020018281038252602b815260200180620016fa602b913960400191505060405180910390fd5b866000806101000a81548173ffffffffffffffffffffffffffffffffffffffff021916908373ffffffffffffffffffffffffffffffffffffffff16021790555085430160018190555084430160028190555083600381905550826004819055508160059080519060200190620002eb92919062000300565b508060068190555050505050505050620003af565b828054600181600116156101000203166002900490600052602060002090601f016020900481019282601f106200034357805160ff191683800117855562000374565b8280016001018555821562000374579182015b828111156200037357825182559160200191906001019062000356565b5b50905062000383919062000387565b5090565b620003ac91905b80821115620003a85760008160009055506001016200038e565b5090565b90565b61133b80620003bf6000396000f3fe6080604052600436106100f35760003560e01c80634979440a1161008a578063c24a0f8b11610059578063c24a0f8b1461039e578063c623674f146103c9578063d57bde7914610459578063ecfc7ecc14610484576100f3565b80634979440a146102965780638da5cb5b146102c15780638fa8b7901461031857806391f9015714610347576100f3565b80631d0806ae116100c65780631d0806ae146101e25780633ccfd60b1461020d5780633f9942ff1461023c57806348cd4cb11461026b576100f3565b806301e5d0bf146100f8578063083c63231461015d5780630b97bc86146101885780631bf822e5146101b3575b600080fd5b34801561010457600080fd5b506101476004803603602081101561011b57600080fd5b81019080803573ffffffffffffffffffffffffffffffffffffffff1690602001909291905050506104a6565b6040518082815260200191505060405180910390f35b34801561016957600080fd5b506101726104ef565b6040518082815260200191505060405180910390f35b34801561019457600080fd5b5061019d6104f5565b6040518082815260200191505060405180910390f35b3480156101bf57600080fd5b506101c86104fb565b604051808215151515815260200191505060405180910390f35b3480156101ee57600080fd5b506101f761050e565b6040518082815260200191505060405180910390f35b34801561021957600080fd5b50610222610514565b604051808215151515815260200191505060405180910390f35b34801561024857600080fd5b50610251610928565b604051808215151515815260200191505060405180910390f35b34801561027757600080fd5b5061028061093b565b6040518082815260200191505060405180910390f35b3480156102a257600080fd5b506102ab610941565b6040518082815260200191505060405180910390f35b3480156102cd57600080fd5b506102d66109aa565b604051808273ffffffffffffffffffffffffffffffffffffffff1673ffffffffffffffffffffffffffffffffffffffff16815260200191505060405180910390f35b34801561032457600080fd5b5061032d6109cf565b604051808215151515815260200191505060405180910390f35b34801561035357600080fd5b5061035c610bbf565b604051808273ffffffffffffffffffffffffffffffffffffffff1673ffffffffffffffffffffffffffffffffffffffff16815260200191505060405180910390f35b3480156103aa57600080fd5b506103b3610be5565b6040518082815260200191505060405180910390f35b3480156103d557600080fd5b506103de610beb565b6040518080602001828103825283818151815260200191508051906020019080838360005b8381101561041e578082015181840152602081019050610403565b50505050905090810190601f16801561044b5780820380516001836020036101000a031916815260200191505b509250505060405180910390f35b34801561046557600080fd5b5061046e610c89565b6040518082815260200191505060405180910390f35b61048c610c8f565b604051808215151515815260200191505060405180910390f35b6000600a60008373ffffffffffffffffffffffffffffffffffffffff1673ffffffffffffffffffffffffffffffffffffffff168152602001908152602001600020549050919050565b60025481565b60035481565b600b60009054906101000a900460ff1681565b60065481565b60006002544311806105325750600760009054906101000a900460ff165b610587576040517f08c379a00000000000000000000000000000000000000000000000000000000081526004018080602001828103825260328152602001806112426032913960400191505060405180910390fd5b600080600760009054906101000a900460ff16156105e957339150600a60008373ffffffffffffffffffffffffffffffffffffffff1673ffffffffffffffffffffffffffffffffffffffff168152602001908152602001600020549050610776565b6000809054906101000a900473ffffffffffffffffffffffffffffffffffffffff1673ffffffffffffffffffffffffffffffffffffffff163373ffffffffffffffffffffffffffffffffffffffff16141561068857600960009054906101000a900473ffffffffffffffffffffffffffffffffffffffff16915060085490506001600b60006101000a81548160ff021916908315150217905550610775565b600960009054906101000a900473ffffffffffffffffffffffffffffffffffffffff1673ffffffffffffffffffffffffffffffffffffffff163373ffffffffffffffffffffffffffffffffffffffff16141561072f576040517f08c379a00000000000000000000000000000000000000000000000000000000081526004018080602001828103825260328152602001806112d56032913960400191505060405180910390fd5b339150600a60008373ffffffffffffffffffffffffffffffffffffffff1673ffffffffffffffffffffffffffffffffffffffff1681526020019081526020016000205490505b5b600081116107ec576040517f08c379a000000000000000000000000000000000000000000000000000000000815260040180806020018281038252601a8152602001807f4e6f2068617920666f6e646f732071756520726574697261722e00000000000081525060200191505060405180910390fd5b80600a60008473ffffffffffffffffffffffffffffffffffffffff1673ffffffffffffffffffffffffffffffffffffffff168152602001908152602001600020600082825403925050819055503373ffffffffffffffffffffffffffffffffffffffff166108fc829081150290604051600060405180830381858888f1935050505015801561087f573d6000803e3d6000fd5b507f0ec497a8ae5b1ba29c60470ef651def995fac3deebbdcc56c47a4e5f51a4c2bd338383604051808473ffffffffffffffffffffffffffffffffffffffff1673ffffffffffffffffffffffffffffffffffffffff1681526020018373ffffffffffffffffffffffffffffffffffffffff1673ffffffffffffffffffffffffffffffffffffffff168152602001828152602001935050505060405180910390a160019250505090565b600760009054906101000a900460ff1681565b60015481565b6000600a6000600960009054906101000a900473ffffffffffffffffffffffffffffffffffffffff1673ffffffffffffffffffffffffffffffffffffffff1673ffffffffffffffffffffffffffffffffffffffff16815260200190815260200160002054905090565b6000809054906101000a900473ffffffffffffffffffffffffffffffffffffffff1681565b60008060009054906101000a900473ffffffffffffffffffffffffffffffffffffffff1673ffffffffffffffffffffffffffffffffffffffff163373ffffffffffffffffffffffffffffffffffffffff1614610a76576040517f08c379a000000000000000000000000000000000000000000000000000000000815260040180806020018281038252603d815260200180611274603d913960400191505060405180910390fd5b600254431115610aee576040517f08c379a00000000000000000000000000000000000000000000000000000000081526004018080602001828103825260178152602001807f45737465206c6f7465206861207465726d696e61646f2e00000000000000000081525060200191505060405180910390fd5b600760009054906101000a900460ff1615610b71576040517f08c379a000000000000000000000000000000000000000000000000000000000815260040180806020018281038252601a8152602001807f45737465206c6f746520657374c3a12063616e63656c6164612e00000000000081525060200191505060405180910390fd5b6001600760006101000a81548160ff0219169083151502179055507f462b6ca7f632601af1295aeb320851f50e8e630a309173f23535845ea4bfb3b960405160405180910390a16001905090565b600960009054906101000a900473ffffffffffffffffffffffffffffffffffffffff1681565b60045481565b60058054600181600116156101000203166002900480601f016020809104026020016040519081016040528092919081815260200182805460018160011615610100020316600290048015610c815780601f10610c5657610100808354040283529160200191610c81565b820191906000526020600020905b815481529060010190602001808311610c6457829003601f168201915b505050505081565b60085481565b6000600154431015610cec576040517f08c379a00000000000000000000000000000000000000000000000000000000081526004018080602001828103825260278152602001806111a06027913960400191505060405180910390fd5b600254431115610d64576040517f08c379a00000000000000000000000000000000000000000000000000000000081526004018080602001828103825260178152602001807f45737465206c6f7465206861207465726d696e61646f2e00000000000000000081525060200191505060405180910390fd5b600760009054906101000a900460ff1615610de7576040517f08c379a000000000000000000000000000000000000000000000000000000000815260040180806020018281038252601a8152602001807f45737465206c6f746520657374c3a12063616e63656c6164612e00000000000081525060200191505060405180910390fd5b6000809054906101000a900473ffffffffffffffffffffffffffffffffffffffff1673ffffffffffffffffffffffffffffffffffffffff163373ffffffffffffffffffffffffffffffffffffffff161415610e8d576040517f08c379a000000000000000000000000000000000000000000000000000000000815260040180806020018281038252602f8152602001806111e8602f913960400191505060405180910390fd5b60003411610ee6576040517f08c379a00000000000000000000000000000000000000000000000000000000081526004018080602001828103825260218152602001806111c76021913960400191505060405180910390fd5b600034600a60003373ffffffffffffffffffffffffffffffffffffffff1673ffffffffffffffffffffffffffffffffffffffff168152602001908152602001600020540190506006548111610f86576040517f08c379a00000000000000000000000000000000000000000000000000000000081526004018080602001828103825260248152602001806112b16024913960400191505060405180910390fd5b6008548111610fe0576040517f08c379a000000000000000000000000000000000000000000000000000000000815260040180806020018281038252602b815260200180611217602b913960400191505060405180910390fd5b80600a60003373ffffffffffffffffffffffffffffffffffffffff1673ffffffffffffffffffffffffffffffffffffffff16815260200190815260200160002081905550600960009054906101000a900473ffffffffffffffffffffffffffffffffffffffff1673ffffffffffffffffffffffffffffffffffffffff163373ffffffffffffffffffffffffffffffffffffffff16146110bb5733600960006101000a81548173ffffffffffffffffffffffffffffffffffffffff021916908373ffffffffffffffffffffffffffffffffffffffff1602179055505b806008819055507ff152f4ff5e488c55370a2d53925a55055228ebd8ec95bd0251bbb299e48786b03382600960009054906101000a900473ffffffffffffffffffffffffffffffffffffffff16600854600854604051808673ffffffffffffffffffffffffffffffffffffffff1673ffffffffffffffffffffffffffffffffffffffff1681526020018581526020018473ffffffffffffffffffffffffffffffffffffffff1673ffffffffffffffffffffffffffffffffffffffff1681526020018381526020018281526020019550505050505060405180910390a160019150509056fe4c6120737562617374612064652065737465206c6f7465206e6f20686120696e69636961646f2e5061796d656e74732062757374206265206d6f7265207468616e2030204554482e456c2070726f706965746172696f206e6f20707565646520656a65637574617220657374612066756e6369c3b36e2e4c612070756a61206573206d656e6f722061206c61206dc3a17320616c746120726567697374726164612e457374612073756261737461206e6f206861207369646f2063616e63656c616461206e69206861207465726d696e61646f2e536f6c6f20656c2070726f706965746172696f2064656c20636f6e747261746f20707565646520656a65637574617220657374612066756e6369c3b36e4c612070756a61206e6f2073757065726120656c2070726563696f20696e696369616c2e54c3ba2066756973746520656c2067616e61646f722064656c206c6f74652c206e6f2070756564657320726574697261722ea265627a7a72315820b6a92f2e50b17c03763e92c47b87ce46d73d378913083d26394887070e98287464736f6c63430005100032456c2070726f706965746172696f2070726f706f7263696f6e61646f206e6f2065732076c3a16c69646f2e456c20626c6f7175652066696e616c206465626520736572206d61796f722071756520656c20626c6f71756520696e696369616c2e4c612066656368612066696e616c206465626520736572206d61796f7220717565206c6120696e696369616c2e536f6c6f20656c2070726f706965746172696f2064656c20636f6e747261746f20707565646520656a65637574617220657374612066756e6369c3b36e2e4c6120636f6d697369c3b36e20706f7220656c2075736f2064656c2073697374656d6120657320646520302e30312ea265627a7a723158200debe83624b44a35daff13991f7fa3ab8e9dd19ee14cdd1cd5dc63ad75091c5c64736f6c63430005100032",
  "source": "pragma solidity >=0.4.21 <0.7.0;\nimport { Auction } from './Auction.sol';\n\ncontract AuctionFactory{\n    address payable public owner;\n    address[] public auctions;\n\n    event AuctionCreated(\n        address auctionContract, address owner, uint numAuctions, address[] allAuctions\n    );\n\n    event LogWithdrawal(\n        address withdrawer,\n        uint256 withdrawalAccount\n    );\n\n    constructor () public {\n        owner = msg.sender;\n    }\n\n    function createAuction(uint _startBlock, uint _endBlock, uint _startDate, uint _endDate,\n                            string memory _ipfsHash, uint _initialPrice) public payable {\n        require(msg.value >= 0.01 ether, \"La comisión por el uso del sistema es de 0.01.\");\n        Auction newAuction = new Auction(msg.sender, _startBlock, _endBlock, _startDate, _endDate, _ipfsHash, _initialPrice);\n        auctions.push(address(newAuction));\n        emit AuctionCreated(address(newAuction), msg.sender, auctions.length, auctions);\n    }\n\n    function getAllAuctions() public view returns (address[] memory) {\n        return auctions;\n    }\n\n    function getBalance() public view returns (uint256){\n        return address(this).balance;\n    }\n\n    function withdraw() public onlyOwner returns (bool success){\n        uint256 balance = address(this).balance;\n        owner.transfer(address(this).balance);\n        emit LogWithdrawal(msg.sender, balance);\n        return true;\n    }\n\n    modifier onlyOwner {\n        require(msg.sender == owner, \"Solo el propietario del contrato puede ejecutar esta función.\");\n        _;\n    }\n}",
  "sourcePath": "/home/dmontes/Documents/ProyectoBC/eventos/auction/src/contracts/AuctionFactory.sol",
  "compiler": {
    "name": "solc",
    "version": "0.5.16+commit.9c3226ce.Emscripten.clang"
  },
  "schemaVersion": "3.2.0",
  "updatedAt": "2020-06-15T23:36:33.258Z",
  "networkType": "ethereum",
  "devdoc": {
    "methods": {}
  },
  "userdoc": {
    "methods": {}
  }
}